{
  "contractName": "GuessNumber",
  "abi": [
    {
      "inputs": [],
      "stateMutability": "nonpayable",
      "type": "constructor"
    },
    {
      "anonymous": false,
      "inputs": [
        {
          "indexed": false,
          "internalType": "address",
          "name": "player",
          "type": "address"
        }
      ],
      "name": "GuessingNumberFailed",
      "type": "event"
    },
    {
      "anonymous": false,
      "inputs": [
        {
          "indexed": false,
          "internalType": "address",
          "name": "operator",
          "type": "address"
        }
      ],
      "name": "GuessingNumberGameAdd",
      "type": "event"
    },
    {
      "anonymous": false,
      "inputs": [
        {
          "indexed": false,
          "internalType": "address",
          "name": "player",
          "type": "address"
        }
      ],
      "name": "GuessingNumberSuccess",
      "type": "event"
    },
    {
      "anonymous": false,
      "inputs": [
        {
          "indexed": true,
          "internalType": "address",
          "name": "previousOwner",
          "type": "address"
        },
        {
          "indexed": true,
          "internalType": "address",
          "name": "newOwner",
          "type": "address"
        }
      ],
      "name": "OwnershipTransferred",
      "type": "event"
    },
    {
      "inputs": [],
      "name": "guessNumberOperator",
      "outputs": [
        {
          "internalType": "address",
          "name": "",
          "type": "address"
        }
      ],
      "stateMutability": "view",
      "type": "function",
      "constant": true
    },
    {
      "inputs": [],
      "name": "owner",
      "outputs": [
        {
          "internalType": "address",
          "name": "",
          "type": "address"
        }
      ],
      "stateMutability": "view",
      "type": "function",
      "constant": true
    },
    {
      "inputs": [],
      "name": "renounceOwnership",
      "outputs": [],
      "stateMutability": "nonpayable",
      "type": "function"
    },
    {
      "inputs": [
        {
          "internalType": "address",
          "name": "newOwner",
          "type": "address"
        }
      ],
      "name": "transferOwnership",
      "outputs": [],
      "stateMutability": "nonpayable",
      "type": "function"
    },
    {
      "inputs": [],
      "name": "isTheOwner",
      "outputs": [
        {
          "internalType": "bool",
          "name": "",
          "type": "bool"
        }
      ],
      "stateMutability": "view",
      "type": "function",
      "constant": true
    },
    {
      "inputs": [
        {
          "internalType": "uint256",
          "name": "_numberToBeGuessed",
          "type": "uint256"
        }
      ],
      "name": "createGuessingNumberGame",
      "outputs": [],
      "stateMutability": "nonpayable",
      "type": "function"
    },
    {
      "inputs": [
        {
          "internalType": "uint256",
          "name": "_numberGuessed",
          "type": "uint256"
        }
      ],
      "name": "guessTheNumber",
      "outputs": [
        {
          "internalType": "bool",
          "name": "",
          "type": "bool"
        }
      ],
      "stateMutability": "nonpayable",
      "type": "function"
    },
    {
      "inputs": [],
      "name": "getNumberOfPlayerWinnings",
      "outputs": [
        {
          "internalType": "uint256",
          "name": "",
          "type": "uint256"
        }
      ],
      "stateMutability": "view",
      "type": "function",
      "constant": true
    },
    {
      "inputs": [],
      "name": "getNumberOfPlayerLosses",
      "outputs": [
        {
          "internalType": "uint256",
          "name": "",
          "type": "uint256"
        }
      ],
      "stateMutability": "view",
      "type": "function",
      "constant": true
    },
    {
      "inputs": [
        {
          "internalType": "address",
          "name": "_address",
          "type": "address"
        }
      ],
      "name": "getLuckyNumberTokenBalance",
      "outputs": [
        {
          "internalType": "uint256",
          "name": "",
          "type": "uint256"
        }
      ],
      "stateMutability": "view",
      "type": "function",
      "constant": true
    },
    {
      "inputs": [],
      "name": "getNumberOfAvailableGames",
      "outputs": [
        {
          "internalType": "uint256",
          "name": "",
          "type": "uint256"
        }
      ],
      "stateMutability": "view",
      "type": "function",
      "constant": true
    }
  ],
  "bytecode": "0x60806040523480156200001157600080fd5b506200003262000026620000f460201b60201c565b620000fc60201b60201c565b62000042620001c060201b60201c565b600260006101000a81548173ffffffffffffffffffffffffffffffffffffffff021916908373ffffffffffffffffffffffffffffffffffffffff1602179055506040516200009090620001e9565b604051809103906000f080158015620000ad573d6000803e3d6000fd5b50600360006101000a81548173ffffffffffffffffffffffffffffffffffffffff021916908373ffffffffffffffffffffffffffffffffffffffff160217905550620001f7565b600033905090565b60008060009054906101000a900473ffffffffffffffffffffffffffffffffffffffff169050816000806101000a81548173ffffffffffffffffffffffffffffffffffffffff021916908373ffffffffffffffffffffffffffffffffffffffff1602179055508173ffffffffffffffffffffffffffffffffffffffff168173ffffffffffffffffffffffffffffffffffffffff167f8be0079c531659141344cd1fd0a4f28419497f9722a3daafe3b4186f6b6457e060405160405180910390a35050565b60008060009054906101000a900473ffffffffffffffffffffffffffffffffffffffff16905090565b6129d680620016cf83390190565b6114c880620002076000396000f3fe608060405234801561001057600080fd5b50600436106100a95760003560e01c80638da5cb5b116100715780638da5cb5b14610142578063a4e7ca9514610160578063bd939ea21461017c578063d4f639d71461019a578063f2fde38b146101ca578063ff9c985f146101e6576100a9565b806325803478146100ae5780633d6c62d3146100cc5780636c741a08146100ea578063715018a61461011a578063716fd06a14610124575b600080fd5b6100b6610204565b6040516100c39190610df1565b60405180910390f35b6100d461022a565b6040516100e19190610e25565b60405180910390f35b61010460048036038101906100ff9190610e71565b610324565b6040516101119190610e25565b60405180910390f35b6101226103c9565b005b61012c610451565b6040516101399190610eb9565b60405180910390f35b61014a6104b9565b6040516101579190610df1565b60405180910390f35b61017a60048036038101906101759190610f00565b6104e2565b005b6101846106a8565b6040516101919190610e25565b60405180910390f35b6101b460048036038101906101af9190610f00565b6107a3565b6040516101c19190610eb9565b60405180910390f35b6101e460048036038101906101df9190610e71565b610abf565b005b6101ee610bb7565b6040516101fb9190610e25565b60405180910390f35b600260009054906101000a900473ffffffffffffffffffffffffffffffffffffffff1681565b6000806000905060005b60015481101561031c573373ffffffffffffffffffffffffffffffffffffffff166004600083815260200190815260200160002060000160009054906101000a900473ffffffffffffffffffffffffffffffffffffffff1673ffffffffffffffffffffffffffffffffffffffff161480156102f557506002808111156102bd576102bc610f2d565b5b6004600083815260200190815260200160002060030160009054906101000a900460ff1660028111156102f3576102f2610f2d565b5b145b1561030957818061030590610f8b565b9250505b808061031490610f8b565b915050610234565b508091505090565b6000600360009054906101000a900473ffffffffffffffffffffffffffffffffffffffff1673ffffffffffffffffffffffffffffffffffffffff166370a08231836040518263ffffffff1660e01b81526004016103819190610df1565b602060405180830381865afa15801561039e573d6000803e3d6000fd5b505050506040513d601f19601f820116820180604052508101906103c29190610fe9565b9050919050565b6103d1610bc4565b73ffffffffffffffffffffffffffffffffffffffff166103ef6104b9565b73ffffffffffffffffffffffffffffffffffffffff1614610445576040517f08c379a000000000000000000000000000000000000000000000000000000000815260040161043c90611073565b60405180910390fd5b61044f6000610bcc565b565b6000600260009054906101000a900473ffffffffffffffffffffffffffffffffffffffff1673ffffffffffffffffffffffffffffffffffffffff163373ffffffffffffffffffffffffffffffffffffffff16146104b157600090506104b6565b600190505b90565b60008060009054906101000a900473ffffffffffffffffffffffffffffffffffffffff16905090565b6104ea610bc4565b73ffffffffffffffffffffffffffffffffffffffff166105086104b9565b73ffffffffffffffffffffffffffffffffffffffff161461055e576040517f08c379a000000000000000000000000000000000000000000000000000000000815260040161055590611073565b60405180910390fd5b8060008111801561056f5750600b81105b6105ae576040517f08c379a00000000000000000000000000000000000000000000000000000000081526004016105a5906110df565b60405180910390fd5b600060046000600154815260200190815260200160002060030160006101000a81548160ff021916908360028111156105ea576105e9610f2d565b5b02179055508160046000600154815260200190815260200160002060010181905550600560015490806001815401808255809150506001900390600052602060002001600090919091909150556001805461064591906110ff565b6001819055507f37797c7d77f5f5f57c132367ded10323b51e535719967c4b8f1ab72310ad97c2600260009054906101000a900473ffffffffffffffffffffffffffffffffffffffff1660405161069c9190610df1565b60405180910390a15050565b6000806000905060005b60015481101561079b573373ffffffffffffffffffffffffffffffffffffffff166004600083815260200190815260200160002060000160009054906101000a900473ffffffffffffffffffffffffffffffffffffffff1673ffffffffffffffffffffffffffffffffffffffff1614801561077457506001600281111561073c5761073b610f2d565b5b6004600083815260200190815260200160002060030160009054906101000a900460ff16600281111561077257610771610f2d565b5b145b1561078857818061078490610f8b565b9250505b808061079390610f8b565b9150506106b2565b508091505090565b600060058080549050116107ec576040517f08c379a00000000000000000000000000000000000000000000000000000000081526004016107e3906111a1565b60405180910390fd5b3373ffffffffffffffffffffffffffffffffffffffff16600260009054906101000a900473ffffffffffffffffffffffffffffffffffffffff1673ffffffffffffffffffffffffffffffffffffffff16141561087d576040517f08c379a000000000000000000000000000000000000000000000000000000000815260040161087490611233565b60405180910390fd5b6000610887610c90565b9050336004600083815260200190815260200160002060000160006101000a81548173ffffffffffffffffffffffffffffffffffffffff021916908373ffffffffffffffffffffffffffffffffffffffff160217905550826004600083815260200190815260200160002060020181905550600460008281526020019081526020016000206001015460046000838152602001908152602001600020600201541415610a3e5760016004600083815260200190815260200160002060030160006101000a81548160ff0219169083600281111561096757610966610f2d565b5b0217905550600360009054906101000a900473ffffffffffffffffffffffffffffffffffffffff1673ffffffffffffffffffffffffffffffffffffffff166340c10f19336101f46040518363ffffffff1660e01b81526004016109cb929190611298565b600060405180830381600087803b1580156109e557600080fd5b505af11580156109f9573d6000803e3d6000fd5b505050507f9e9baf7a7321b47d91916729c25dcb16df81fe5f4debe424bdbb4bd9b1af97ee33604051610a2c9190610df1565b60405180910390a16001915050610aba565b60026004600083815260200190815260200160002060030160006101000a81548160ff02191690836002811115610a7857610a77610f2d565b5b02179055507faa4966ff60f4429a6fbddef4c7a97ef9538281a119fe572c0a6f0f5f1a896b8633604051610aac9190610df1565b60405180910390a160009150505b919050565b610ac7610bc4565b73ffffffffffffffffffffffffffffffffffffffff16610ae56104b9565b73ffffffffffffffffffffffffffffffffffffffff1614610b3b576040517f08c379a0000000000000000000000000000000000000000000000000000000008152600401610b3290611073565b60405180910390fd5b600073ffffffffffffffffffffffffffffffffffffffff168173ffffffffffffffffffffffffffffffffffffffff161415610bab576040517f08c379a0000000000000000000000000000000000000000000000000000000008152600401610ba290611333565b60405180910390fd5b610bb481610bcc565b50565b6000600580549050905090565b600033905090565b60008060009054906101000a900473ffffffffffffffffffffffffffffffffffffffff169050816000806101000a81548173ffffffffffffffffffffffffffffffffffffffff021916908373ffffffffffffffffffffffffffffffffffffffff1602179055508173ffffffffffffffffffffffffffffffffffffffff168173ffffffffffffffffffffffffffffffffffffffff167f8be0079c531659141344cd1fd0a4f28419497f9722a3daafe3b4186f6b6457e060405160405180910390a35050565b6000806001600580549050610ca59190611353565b9050600081610cb2610d00565b610cbc91906113b6565b905081811115610ccb57600090505b600060058281548110610ce157610ce06113e7565b5b90600052602060002001549050610cf782610d33565b80935050505090565b60004442604051602001610d15929190611437565b6040516020818303038152906040528051906020012060001c905090565b60056001600580549050610d479190611353565b81548110610d5857610d576113e7565b5b906000526020600020015460058281548110610d7757610d766113e7565b5b90600052602060002001819055506005805480610d9757610d96611463565b5b6001900381819060005260206000200160009055905550565b600073ffffffffffffffffffffffffffffffffffffffff82169050919050565b6000610ddb82610db0565b9050919050565b610deb81610dd0565b82525050565b6000602082019050610e066000830184610de2565b92915050565b6000819050919050565b610e1f81610e0c565b82525050565b6000602082019050610e3a6000830184610e16565b92915050565b600080fd5b610e4e81610dd0565b8114610e5957600080fd5b50565b600081359050610e6b81610e45565b92915050565b600060208284031215610e8757610e86610e40565b5b6000610e9584828501610e5c565b91505092915050565b60008115159050919050565b610eb381610e9e565b82525050565b6000602082019050610ece6000830184610eaa565b92915050565b610edd81610e0c565b8114610ee857600080fd5b50565b600081359050610efa81610ed4565b92915050565b600060208284031215610f1657610f15610e40565b5b6000610f2484828501610eeb565b91505092915050565b7f4e487b7100000000000000000000000000000000000000000000000000000000600052602160045260246000fd5b7f4e487b7100000000000000000000000000000000000000000000000000000000600052601160045260246000fd5b6000610f9682610e0c565b91507fffffffffffffffffffffffffffffffffffffffffffffffffffffffffffffffff821415610fc957610fc8610f5c565b5b600182019050919050565b600081519050610fe381610ed4565b92915050565b600060208284031215610fff57610ffe610e40565b5b600061100d84828501610fd4565b91505092915050565b600082825260208201905092915050565b7f4f776e61626c653a2063616c6c6572206973206e6f7420746865206f776e6572600082015250565b600061105d602083611016565b915061106882611027565b602082019050919050565b6000602082019050818103600083015261108c81611050565b9050919050565b7f4e756d626572206d757374206265206265747765656e203120616e6420313000600082015250565b60006110c9601f83611016565b91506110d482611093565b602082019050919050565b600060208201905081810360008301526110f8816110bc565b9050919050565b600061110a82610e0c565b915061111583610e0c565b9250827fffffffffffffffffffffffffffffffffffffffffffffffffffffffffffffffff0382111561114a57611149610f5c565b5b828201905092915050565b7f47616d65206973206e6f7420726561647920746f20626520706c617965640000600082015250565b600061118b601e83611016565b915061119682611155565b602082019050919050565b600060208201905081810360008301526111ba8161117e565b9050919050565b7f4f776e6572206f66207468652067616d652063616e206e6f742067756573732060008201527f746865206e756d62657273000000000000000000000000000000000000000000602082015250565b600061121d602b83611016565b9150611228826111c1565b604082019050919050565b6000602082019050818103600083015261124c81611210565b9050919050565b6000819050919050565b6000819050919050565b600061128261127d61127884611253565b61125d565b610e0c565b9050919050565b61129281611267565b82525050565b60006040820190506112ad6000830185610de2565b6112ba6020830184611289565b9392505050565b7f4f776e61626c653a206e6577206f776e657220697320746865207a65726f206160008201527f6464726573730000000000000000000000000000000000000000000000000000602082015250565b600061131d602683611016565b9150611328826112c1565b604082019050919050565b6000602082019050818103600083015261134c81611310565b9050919050565b600061135e82610e0c565b915061136983610e0c565b92508282101561137c5761137b610f5c565b5b828203905092915050565b7f4e487b7100000000000000000000000000000000000000000000000000000000600052601260045260246000fd5b60006113c182610e0c565b91506113cc83610e0c565b9250826113dc576113db611387565b5b828206905092915050565b7f4e487b7100000000000000000000000000000000000000000000000000000000600052603260045260246000fd5b6000819050919050565b61143161142c82610e0c565b611416565b82525050565b60006114438285611420565b6020820191506114538284611420565b6020820191508190509392505050565b7f4e487b7100000000000000000000000000000000000000000000000000000000600052603160045260246000fdfea26469706673582212205b841c2da219f25f2acf0890e32f79a80b0a07c367e5b7bfac4662d21b8ad60964736f6c634300080a003360806040523480156200001157600080fd5b506040518060400160405280600b81526020017f4c75636b794e756d6265720000000000000000000000000000000000000000008152506040518060400160405280600381526020017f4c4e54000000000000000000000000000000000000000000000000000000000081525081600490805190602001906200009692919062000406565b508060059080519060200190620000af92919062000406565b505050620000d1336c01431e0fae6d7217caa00000006200010960201b60201c565b620001037f9f2df0fed2c77648de5860a4cc508cd0818c85b8b8a1ab4ceeef8d981c8956a6336200028360201b60201c565b62000662565b600073ffffffffffffffffffffffffffffffffffffffff168273ffffffffffffffffffffffffffffffffffffffff1614156200017c576040517f08c379a0000000000000000000000000000000000000000000000000000000008152600401620001739062000517565b60405180910390fd5b62000190600083836200029960201b60201c565b8060036000828254620001a4919062000572565b9250508190555080600160008473ffffffffffffffffffffffffffffffffffffffff1673ffffffffffffffffffffffffffffffffffffffff1681526020019081526020016000206000828254620001fc919062000572565b925050819055508173ffffffffffffffffffffffffffffffffffffffff16600073ffffffffffffffffffffffffffffffffffffffff167fddf252ad1be2c89b69c2b068fc378daa952ba7f163c4a11628f55a4df523b3ef83604051620002639190620005e0565b60405180910390a36200027f600083836200029e60201b60201c565b5050565b620002958282620002a360201b60201c565b5050565b505050565b505050565b620002b582826200039460201b60201c565b6200039057600160008084815260200190815260200160002060000160008373ffffffffffffffffffffffffffffffffffffffff1673ffffffffffffffffffffffffffffffffffffffff16815260200190815260200160002060006101000a81548160ff02191690831515021790555062000335620003fe60201b60201c565b73ffffffffffffffffffffffffffffffffffffffff168173ffffffffffffffffffffffffffffffffffffffff16837f2f8788117e7eff1d82e926ec794901d17c78024a50270940304540a733656f0d60405160405180910390a45b5050565b600080600084815260200190815260200160002060000160008373ffffffffffffffffffffffffffffffffffffffff1673ffffffffffffffffffffffffffffffffffffffff16815260200190815260200160002060009054906101000a900460ff16905092915050565b600033905090565b82805462000414906200062c565b90600052602060002090601f01602090048101928262000438576000855562000484565b82601f106200045357805160ff191683800117855562000484565b8280016001018555821562000484579182015b828111156200048357825182559160200191906001019062000466565b5b50905062000493919062000497565b5090565b5b80821115620004b257600081600090555060010162000498565b5090565b600082825260208201905092915050565b7f45524332303a206d696e7420746f20746865207a65726f206164647265737300600082015250565b6000620004ff601f83620004b6565b91506200050c82620004c7565b602082019050919050565b600060208201905081810360008301526200053281620004f0565b9050919050565b6000819050919050565b7f4e487b7100000000000000000000000000000000000000000000000000000000600052601160045260246000fd5b60006200057f8262000539565b91506200058c8362000539565b9250827fffffffffffffffffffffffffffffffffffffffffffffffffffffffffffffffff03821115620005c457620005c362000543565b5b828201905092915050565b620005da8162000539565b82525050565b6000602082019050620005f76000830184620005cf565b92915050565b7f4e487b7100000000000000000000000000000000000000000000000000000000600052602260045260246000fd5b600060028204905060018216806200064557607f821691505b602082108114156200065c576200065b620005fd565b5b50919050565b61236480620006726000396000f3fe608060405234801561001057600080fd5b506004361061012c5760003560e01c806340c10f19116100ad578063a457c2d711610071578063a457c2d71461036b578063a9059cbb1461039b578063d5391393146103cb578063d547741f146103e9578063dd62ed3e146104055761012c565b806340c10f19146102b357806370a08231146102cf57806391d14854146102ff57806395d89b411461032f578063a217fddf1461034d5761012c565b8063248a9ca3116100f4578063248a9ca3146101fd5780632f2ff15d1461022d578063313ce5671461024957806336568abe1461026757806339509351146102835761012c565b806301ffc9a71461013157806306fdde0314610161578063095ea7b31461017f57806318160ddd146101af57806323b872dd146101cd575b600080fd5b61014b600480360381019061014691906116a4565b610435565b60405161015891906116ec565b60405180910390f35b6101696104af565b60405161017691906117a0565b60405180910390f35b61019960048036038101906101949190611856565b610541565b6040516101a691906116ec565b60405180910390f35b6101b761055f565b6040516101c491906118a5565b60405180910390f35b6101e760048036038101906101e291906118c0565b610569565b6040516101f491906116ec565b60405180910390f35b61021760048036038101906102129190611949565b610661565b6040516102249190611985565b60405180910390f35b610247600480360381019061024291906119a0565b610680565b005b6102516106a9565b60405161025e91906119fc565b60405180910390f35b610281600480360381019061027c91906119a0565b6106b2565b005b61029d60048036038101906102989190611856565b610735565b6040516102aa91906116ec565b60405180910390f35b6102cd60048036038101906102c89190611856565b6107e1565b005b6102e960048036038101906102e49190611a17565b610858565b6040516102f691906118a5565b60405180910390f35b610319600480360381019061031491906119a0565b6108a1565b60405161032691906116ec565b60405180910390f35b61033761090b565b60405161034491906117a0565b60405180910390f35b61035561099d565b6040516103629190611985565b60405180910390f35b61038560048036038101906103809190611856565b6109a4565b60405161039291906116ec565b60405180910390f35b6103b560048036038101906103b09190611856565b610a8f565b6040516103c291906116ec565b60405180910390f35b6103d3610aad565b6040516103e09190611985565b60405180910390f35b61040360048036038101906103fe91906119a0565b610ad1565b005b61041f600480360381019061041a9190611a44565b610afa565b60405161042c91906118a5565b60405180910390f35b60007f7965db0b000000000000000000000000000000000000000000000000000000007bffffffffffffffffffffffffffffffffffffffffffffffffffffffff1916827bffffffffffffffffffffffffffffffffffffffffffffffffffffffff191614806104a857506104a782610b81565b5b9050919050565b6060600480546104be90611ab3565b80601f01602080910402602001604051908101604052809291908181526020018280546104ea90611ab3565b80156105375780601f1061050c57610100808354040283529160200191610537565b820191906000526020600020905b81548152906001019060200180831161051a57829003601f168201915b5050505050905090565b600061055561054e610beb565b8484610bf3565b6001905092915050565b6000600354905090565b6000610576848484610dbe565b6000600260008673ffffffffffffffffffffffffffffffffffffffff1673ffffffffffffffffffffffffffffffffffffffff16815260200190815260200160002060006105c1610beb565b73ffffffffffffffffffffffffffffffffffffffff1673ffffffffffffffffffffffffffffffffffffffff16815260200190815260200160002054905082811015610641576040517f08c379a000000000000000000000000000000000000000000000000000000000815260040161063890611b57565b60405180910390fd5b6106558561064d610beb565b858403610bf3565b60019150509392505050565b6000806000838152602001908152602001600020600101549050919050565b61068982610661565b61069a81610695610beb565b611042565b6106a483836110df565b505050565b60006012905090565b6106ba610beb565b73ffffffffffffffffffffffffffffffffffffffff168173ffffffffffffffffffffffffffffffffffffffff1614610727576040517f08c379a000000000000000000000000000000000000000000000000000000000815260040161071e90611be9565b60405180910390fd5b61073182826111bf565b5050565b60006107d7610742610beb565b848460026000610750610beb565b73ffffffffffffffffffffffffffffffffffffffff1673ffffffffffffffffffffffffffffffffffffffff16815260200190815260200160002060008873ffffffffffffffffffffffffffffffffffffffff1673ffffffffffffffffffffffffffffffffffffffff168152602001908152602001600020546107d29190611c38565b610bf3565b6001905092915050565b61080b7f9f2df0fed2c77648de5860a4cc508cd0818c85b8b8a1ab4ceeef8d981c8956a6336108a1565b61084a576040517f08c379a000000000000000000000000000000000000000000000000000000000815260040161084190611cda565b60405180910390fd5b61085482826112a0565b5050565b6000600160008373ffffffffffffffffffffffffffffffffffffffff1673ffffffffffffffffffffffffffffffffffffffff168152602001908152602001600020549050919050565b600080600084815260200190815260200160002060000160008373ffffffffffffffffffffffffffffffffffffffff1673ffffffffffffffffffffffffffffffffffffffff16815260200190815260200160002060009054906101000a900460ff16905092915050565b60606005805461091a90611ab3565b80601f016020809104026020016040519081016040528092919081815260200182805461094690611ab3565b80156109935780601f1061096857610100808354040283529160200191610993565b820191906000526020600020905b81548152906001019060200180831161097657829003601f168201915b5050505050905090565b6000801b81565b600080600260006109b3610beb565b73ffffffffffffffffffffffffffffffffffffffff1673ffffffffffffffffffffffffffffffffffffffff16815260200190815260200160002060008573ffffffffffffffffffffffffffffffffffffffff1673ffffffffffffffffffffffffffffffffffffffff16815260200190815260200160002054905082811015610a70576040517f08c379a0000000000000000000000000000000000000000000000000000000008152600401610a6790611d6c565b60405180910390fd5b610a84610a7b610beb565b85858403610bf3565b600191505092915050565b6000610aa3610a9c610beb565b8484610dbe565b6001905092915050565b7f9f2df0fed2c77648de5860a4cc508cd0818c85b8b8a1ab4ceeef8d981c8956a681565b610ada82610661565b610aeb81610ae6610beb565b611042565b610af583836111bf565b505050565b6000600260008473ffffffffffffffffffffffffffffffffffffffff1673ffffffffffffffffffffffffffffffffffffffff16815260200190815260200160002060008373ffffffffffffffffffffffffffffffffffffffff1673ffffffffffffffffffffffffffffffffffffffff16815260200190815260200160002054905092915050565b60007f01ffc9a7000000000000000000000000000000000000000000000000000000007bffffffffffffffffffffffffffffffffffffffffffffffffffffffff1916827bffffffffffffffffffffffffffffffffffffffffffffffffffffffff1916149050919050565b600033905090565b600073ffffffffffffffffffffffffffffffffffffffff168373ffffffffffffffffffffffffffffffffffffffff161415610c63576040517f08c379a0000000000000000000000000000000000000000000000000000000008152600401610c5a90611dfe565b60405180910390fd5b600073ffffffffffffffffffffffffffffffffffffffff168273ffffffffffffffffffffffffffffffffffffffff161415610cd3576040517f08c379a0000000000000000000000000000000000000000000000000000000008152600401610cca90611e90565b60405180910390fd5b80600260008573ffffffffffffffffffffffffffffffffffffffff1673ffffffffffffffffffffffffffffffffffffffff16815260200190815260200160002060008473ffffffffffffffffffffffffffffffffffffffff1673ffffffffffffffffffffffffffffffffffffffff168152602001908152602001600020819055508173ffffffffffffffffffffffffffffffffffffffff168373ffffffffffffffffffffffffffffffffffffffff167f8c5be1e5ebec7d5bd14f71427d1e84f3dd0314c0f7b2291e5b200ac8c7c3b92583604051610db191906118a5565b60405180910390a3505050565b600073ffffffffffffffffffffffffffffffffffffffff168373ffffffffffffffffffffffffffffffffffffffff161415610e2e576040517f08c379a0000000000000000000000000000000000000000000000000000000008152600401610e2590611f22565b60405180910390fd5b600073ffffffffffffffffffffffffffffffffffffffff168273ffffffffffffffffffffffffffffffffffffffff161415610e9e576040517f08c379a0000000000000000000000000000000000000000000000000000000008152600401610e9590611fb4565b60405180910390fd5b610ea9838383611401565b6000600160008573ffffffffffffffffffffffffffffffffffffffff1673ffffffffffffffffffffffffffffffffffffffff16815260200190815260200160002054905081811015610f30576040517f08c379a0000000000000000000000000000000000000000000000000000000008152600401610f2790612046565b60405180910390fd5b818103600160008673ffffffffffffffffffffffffffffffffffffffff1673ffffffffffffffffffffffffffffffffffffffff1681526020019081526020016000208190555081600160008573ffffffffffffffffffffffffffffffffffffffff1673ffffffffffffffffffffffffffffffffffffffff1681526020019081526020016000206000828254610fc59190611c38565b925050819055508273ffffffffffffffffffffffffffffffffffffffff168473ffffffffffffffffffffffffffffffffffffffff167fddf252ad1be2c89b69c2b068fc378daa952ba7f163c4a11628f55a4df523b3ef8460405161102991906118a5565b60405180910390a361103c848484611406565b50505050565b61104c82826108a1565b6110db576110718173ffffffffffffffffffffffffffffffffffffffff16601461140b565b61107f8360001c602061140b565b60405160200161109092919061213a565b6040516020818303038152906040526040517f08c379a00000000000000000000000000000000000000000000000000000000081526004016110d291906117a0565b60405180910390fd5b5050565b6110e982826108a1565b6111bb57600160008084815260200190815260200160002060000160008373ffffffffffffffffffffffffffffffffffffffff1673ffffffffffffffffffffffffffffffffffffffff16815260200190815260200160002060006101000a81548160ff021916908315150217905550611160610beb565b73ffffffffffffffffffffffffffffffffffffffff168173ffffffffffffffffffffffffffffffffffffffff16837f2f8788117e7eff1d82e926ec794901d17c78024a50270940304540a733656f0d60405160405180910390a45b5050565b6111c982826108a1565b1561129c57600080600084815260200190815260200160002060000160008373ffffffffffffffffffffffffffffffffffffffff1673ffffffffffffffffffffffffffffffffffffffff16815260200190815260200160002060006101000a81548160ff021916908315150217905550611241610beb565b73ffffffffffffffffffffffffffffffffffffffff168173ffffffffffffffffffffffffffffffffffffffff16837ff6391f5c32d9c69d2a47ea670b442974b53935d1edc7fd64eb21e047a839171b60405160405180910390a45b5050565b600073ffffffffffffffffffffffffffffffffffffffff168273ffffffffffffffffffffffffffffffffffffffff161415611310576040517f08c379a0000000000000000000000000000000000000000000000000000000008152600401611307906121c0565b60405180910390fd5b61131c60008383611401565b806003600082825461132e9190611c38565b9250508190555080600160008473ffffffffffffffffffffffffffffffffffffffff1673ffffffffffffffffffffffffffffffffffffffff16815260200190815260200160002060008282546113849190611c38565b925050819055508173ffffffffffffffffffffffffffffffffffffffff16600073ffffffffffffffffffffffffffffffffffffffff167fddf252ad1be2c89b69c2b068fc378daa952ba7f163c4a11628f55a4df523b3ef836040516113e991906118a5565b60405180910390a36113fd60008383611406565b5050565b505050565b505050565b60606000600283600261141e91906121e0565b6114289190611c38565b67ffffffffffffffff8111156114415761144061223a565b5b6040519080825280601f01601f1916602001820160405280156114735781602001600182028036833780820191505090505b5090507f3000000000000000000000000000000000000000000000000000000000000000816000815181106114ab576114aa612269565b5b60200101907effffffffffffffffffffffffffffffffffffffffffffffffffffffffffffff1916908160001a9053507f78000000000000000000000000000000000000000000000000000000000000008160018151811061150f5761150e612269565b5b60200101907effffffffffffffffffffffffffffffffffffffffffffffffffffffffffffff1916908160001a9053506000600184600261154f91906121e0565b6115599190611c38565b90505b60018111156115f9577f3031323334353637383961626364656600000000000000000000000000000000600f86166010811061159b5761159a612269565b5b1a60f81b8282815181106115b2576115b1612269565b5b60200101907effffffffffffffffffffffffffffffffffffffffffffffffffffffffffffff1916908160001a905350600485901c9450806115f290612298565b905061155c565b506000841461163d576040517f08c379a00000000000000000000000000000000000000000000000000000000081526004016116349061230e565b60405180910390fd5b8091505092915050565b600080fd5b60007fffffffff0000000000000000000000000000000000000000000000000000000082169050919050565b6116818161164c565b811461168c57600080fd5b50565b60008135905061169e81611678565b92915050565b6000602082840312156116ba576116b9611647565b5b60006116c88482850161168f565b91505092915050565b60008115159050919050565b6116e6816116d1565b82525050565b600060208201905061170160008301846116dd565b92915050565b600081519050919050565b600082825260208201905092915050565b60005b83811015611741578082015181840152602081019050611726565b83811115611750576000848401525b50505050565b6000601f19601f8301169050919050565b600061177282611707565b61177c8185611712565b935061178c818560208601611723565b61179581611756565b840191505092915050565b600060208201905081810360008301526117ba8184611767565b905092915050565b600073ffffffffffffffffffffffffffffffffffffffff82169050919050565b60006117ed826117c2565b9050919050565b6117fd816117e2565b811461180857600080fd5b50565b60008135905061181a816117f4565b92915050565b6000819050919050565b61183381611820565b811461183e57600080fd5b50565b6000813590506118508161182a565b92915050565b6000806040838503121561186d5761186c611647565b5b600061187b8582860161180b565b925050602061188c85828601611841565b9150509250929050565b61189f81611820565b82525050565b60006020820190506118ba6000830184611896565b92915050565b6000806000606084860312156118d9576118d8611647565b5b60006118e78682870161180b565b93505060206118f88682870161180b565b925050604061190986828701611841565b9150509250925092565b6000819050919050565b61192681611913565b811461193157600080fd5b50565b6000813590506119438161191d565b92915050565b60006020828403121561195f5761195e611647565b5b600061196d84828501611934565b91505092915050565b61197f81611913565b82525050565b600060208201905061199a6000830184611976565b92915050565b600080604083850312156119b7576119b6611647565b5b60006119c585828601611934565b92505060206119d68582860161180b565b9150509250929050565b600060ff82169050919050565b6119f6816119e0565b82525050565b6000602082019050611a1160008301846119ed565b92915050565b600060208284031215611a2d57611a2c611647565b5b6000611a3b8482850161180b565b91505092915050565b60008060408385031215611a5b57611a5a611647565b5b6000611a698582860161180b565b9250506020611a7a8582860161180b565b9150509250929050565b7f4e487b7100000000000000000000000000000000000000000000000000000000600052602260045260246000fd5b60006002820490506001821680611acb57607f821691505b60208210811415611adf57611ade611a84565b5b50919050565b7f45524332303a207472616e7366657220616d6f756e742065786365656473206160008201527f6c6c6f77616e6365000000000000000000000000000000000000000000000000602082015250565b6000611b41602883611712565b9150611b4c82611ae5565b604082019050919050565b60006020820190508181036000830152611b7081611b34565b9050919050565b7f416363657373436f6e74726f6c3a2063616e206f6e6c792072656e6f756e636560008201527f20726f6c657320666f722073656c660000000000000000000000000000000000602082015250565b6000611bd3602f83611712565b9150611bde82611b77565b604082019050919050565b60006020820190508181036000830152611c0281611bc6565b9050919050565b7f4e487b7100000000000000000000000000000000000000000000000000000000600052601160045260246000fd5b6000611c4382611820565b9150611c4e83611820565b9250827fffffffffffffffffffffffffffffffffffffffffffffffffffffffffffffffff03821115611c8357611c82611c09565b5b828201905092915050565b7f43616c6c6572206973206e6f742061206d696e74657200000000000000000000600082015250565b6000611cc4601683611712565b9150611ccf82611c8e565b602082019050919050565b60006020820190508181036000830152611cf381611cb7565b9050919050565b7f45524332303a2064656372656173656420616c6c6f77616e63652062656c6f7760008201527f207a65726f000000000000000000000000000000000000000000000000000000602082015250565b6000611d56602583611712565b9150611d6182611cfa565b604082019050919050565b60006020820190508181036000830152611d8581611d49565b9050919050565b7f45524332303a20617070726f76652066726f6d20746865207a65726f2061646460008201527f7265737300000000000000000000000000000000000000000000000000000000602082015250565b6000611de8602483611712565b9150611df382611d8c565b604082019050919050565b60006020820190508181036000830152611e1781611ddb565b9050919050565b7f45524332303a20617070726f766520746f20746865207a65726f20616464726560008201527f7373000000000000000000000000000000000000000000000000000000000000602082015250565b6000611e7a602283611712565b9150611e8582611e1e565b604082019050919050565b60006020820190508181036000830152611ea981611e6d565b9050919050565b7f45524332303a207472616e736665722066726f6d20746865207a65726f20616460008201527f6472657373000000000000000000000000000000000000000000000000000000602082015250565b6000611f0c602583611712565b9150611f1782611eb0565b604082019050919050565b60006020820190508181036000830152611f3b81611eff565b9050919050565b7f45524332303a207472616e7366657220746f20746865207a65726f206164647260008201527f6573730000000000000000000000000000000000000000000000000000000000602082015250565b6000611f9e602383611712565b9150611fa982611f42565b604082019050919050565b60006020820190508181036000830152611fcd81611f91565b9050919050565b7f45524332303a207472616e7366657220616d6f756e742065786365656473206260008201527f616c616e63650000000000000000000000000000000000000000000000000000602082015250565b6000612030602683611712565b915061203b82611fd4565b604082019050919050565b6000602082019050818103600083015261205f81612023565b9050919050565b600081905092915050565b7f416363657373436f6e74726f6c3a206163636f756e7420000000000000000000600082015250565b60006120a7601783612066565b91506120b282612071565b601782019050919050565b60006120c882611707565b6120d28185612066565b93506120e2818560208601611723565b80840191505092915050565b7f206973206d697373696e6720726f6c6520000000000000000000000000000000600082015250565b6000612124601183612066565b915061212f826120ee565b601182019050919050565b60006121458261209a565b915061215182856120bd565b915061215c82612117565b915061216882846120bd565b91508190509392505050565b7f45524332303a206d696e7420746f20746865207a65726f206164647265737300600082015250565b60006121aa601f83611712565b91506121b582612174565b602082019050919050565b600060208201905081810360008301526121d98161219d565b9050919050565b60006121eb82611820565b91506121f683611820565b9250817fffffffffffffffffffffffffffffffffffffffffffffffffffffffffffffffff048311821515161561222f5761222e611c09565b5b828202905092915050565b7f4e487b7100000000000000000000000000000000000000000000000000000000600052604160045260246000fd5b7f4e487b7100000000000000000000000000000000000000000000000000000000600052603260045260246000fd5b60006122a382611820565b915060008214156122b7576122b6611c09565b5b600182039050919050565b7f537472696e67733a20686578206c656e67746820696e73756666696369656e74600082015250565b60006122f8602083611712565b9150612303826122c2565b602082019050919050565b60006020820190508181036000830152612327816122eb565b905091905056fea2646970667358221220e004282cda284e8cc079e1e397588f169ae30319459fdb39755a269dee44e0f264736f6c634300080a0033",
  "immutableReferences": {},
  "source": "// SPDX-License-Identifier: GPL-3.0\npragma solidity ^0.8.0;\n\nimport \"@openzeppelin/contracts/access/Ownable.sol\";\nimport \"./LuckyNumberToken.sol\";\n\ncontract GuessNumber is Ownable {\n  /// @notice counter to keep track how many games exist\n  /// @dev used to store how many games are created\n  uint gameCounter;\n\n  /// @dev address of operator that create a games\n  address public guessNumberOperator;\n\n  /// @dev lucky number token\n  LuckyNumberToken private luckyNumberToken;\n  \n  /// @dev enum that defines state of the games\n  enum GuessNumberState {\n    GUESSING_NUMBER_CREATE_GAME,\n    GUESSING_FINISHED_SUCCESS,\n    GUESSING_FINISHED_FAILED\n  }\n\n  /// @dev struct that describe game\n  struct GuessNumberGame {\n    address guessNumberPlayer;\n    uint numberToBeGuessed;\n    uint guessNumber;\n    GuessNumberState gameState;\n  }\n\n  mapping(uint => GuessNumberGame) private guessNumberGames;\n  uint[] private games;\n\n  /// @notice modifier to check that owner can not guess the game\n  modifier isNotOwner() {\n    require(guessNumberOperator != msg.sender, \"Owner of the game can not guess the numbers\");\n    _;\n  }\n\n  /// @notice modifier to check if it is possible to play game\n  modifier isGameAvailable() {\n    // System must have more that a 5 games ready to be played\n    require(games.length > 5, \"Game is not ready to be played\");\n    _;\n  }\n\n  /// @notice modifier to check if number to be guessed is in a range between 1 and 10\n  modifier checkTheNumber(uint _numberToBeGuessed) {\n    require(_numberToBeGuessed > 0 && _numberToBeGuessed < 11, \"Number must be between 1 and 10\");\n    _;\n  }\n\n  /// @notice emited when new game is created\n  /// @dev emited when new game is created\n  /// @param operator address of operator\n  event GuessingNumberGameAdd(address operator);\n\n  /// @notice emited when player succeed to guess the number\n  /// @dev emited when player succeed to guess the number\n  /// @param player address of player that missed the number\n  event GuessingNumberSuccess(address player);\n\n  /// @notice emited when player missed the number\n  /// @dev emited when player missed the number\n  /// @param player address of player that missed the number\n  event GuessingNumberFailed(address player);\n\n  constructor() {\n    guessNumberOperator = owner();\n    luckyNumberToken = new LuckyNumberToken();\n  }\n\n  function isTheOwner() public view returns (bool) {\n    if (msg.sender != guessNumberOperator) {\n      return false;\n    }\n\n    return true;\n  }\n\n  /// @notice Create new guessing number game and set initial state\n  /// @param _numberToBeGuessed number that user should guess\n  /// @dev create and add new game into list of games with submitted number\n  function createGuessingNumberGame(uint _numberToBeGuessed) public onlyOwner checkTheNumber(_numberToBeGuessed) {\n    // Set data of the game\n    guessNumberGames[gameCounter].gameState = GuessNumberState.GUESSING_NUMBER_CREATE_GAME;\n    guessNumberGames[gameCounter].numberToBeGuessed = _numberToBeGuessed;\n    \n    // Set game counter\n    games.push(gameCounter);\n    gameCounter = gameCounter + 1;\n    // Add new game that is available to be played\n\n    // Publish event that new game has been added\n    emit GuessingNumberGameAdd(guessNumberOperator);\n  }\n\n  /// @notice Create new guessing number game and set initial state\n  /// @param _numberGuessed number that user should guess\n  /// @dev create and add new game into list of games with submitted number\n  function guessTheNumber(uint _numberGuessed) public isGameAvailable() isNotOwner() returns (bool) {\n    // Find first available game\n    // If game doesn't exist transaction will be revertted\n    uint index = findNextGame();\n    \n    // played game\n    guessNumberGames[index].guessNumberPlayer = msg.sender;\n    guessNumberGames[index].guessNumber = _numberGuessed;\n\n    // Check if player successfully guessed the \n    if (guessNumberGames[index].guessNumber == guessNumberGames[index].numberToBeGuessed) {\n      guessNumberGames[index].gameState = GuessNumberState.GUESSING_FINISHED_SUCCESS;\n      luckyNumberToken.mint(msg.sender, 500);\n      emit GuessingNumberSuccess(msg.sender);\n      return true;\n    }\n      \n    // Game is lost, set player \n    guessNumberGames[index].gameState = GuessNumberState.GUESSING_FINISHED_FAILED;\n    emit GuessingNumberFailed(msg.sender);\n    return false;\n  }\n  \n  /// @notice Get number of winnings\n  /// @dev Get number of winnings base on sender address\n  function getNumberOfPlayerWinnings() public view returns (uint) {\n    uint numberOfWinnings = 0;\n    for (uint i = 0; i < gameCounter; i++) {\n      if (guessNumberGames[i].guessNumberPlayer == msg.sender && guessNumberGames[i].gameState == GuessNumberState.GUESSING_FINISHED_SUCCESS) {\n        numberOfWinnings++;\n      }\n    }\n\n    return numberOfWinnings;\n  }\n\n  /// @notice Get number of losses\n  /// @dev Get number of losses base on sender address\n  function getNumberOfPlayerLosses() public view returns (uint) {\n    uint numberOfLosses = 0;\n    for (uint i = 0; i < gameCounter; i++) {\n      if (guessNumberGames[i].guessNumberPlayer == msg.sender && guessNumberGames[i].gameState == GuessNumberState.GUESSING_FINISHED_FAILED) {\n        numberOfLosses++;\n      }\n    }\n\n    return numberOfLosses;\n  }\n\n  /// @notice Create \"Random number\" to get game from array\n  /// @dev create not really random number - For real random number use Oracle implement \"@chainlink/contracts/src/v0.8/VRFConsumerBase.sol\";\n  function notReallyRandom() private view returns (uint256) {\n    return uint256(keccak256(abi.encodePacked(block.difficulty, block.timestamp)));\n  }\n\n  /// @notice Remove element from array based on provided index\n  /// @param index index that should be removed from array\n  function remove(uint index) private {\n    games[index] = games[games.length - 1];\n    games.pop();\n  }\n\n  /// @notice Get number of losses\n  /// @dev Get number of losses base on sender address\n  function findNextGame() private returns (uint) {\n    // Find available game\n    uint numbOfGames = games.length - 1;\n\n    // DEMO Find random number between 0 and number of games\n    uint random = notReallyRandom() % numbOfGames;\n\n    // Just in case if something happen odd with random function set next games to first in a row\n    // Never should happen\n    if (random > numbOfGames) {\n      random = 0;\n    }\n\n    // Get demo random number\n    uint nextGameIndex = games[random];\n    remove(random);\n\n    return nextGameIndex;\n  }\n\n  /// @notice Get lucky number token balance\n  /// @dev Based on provided address get lucky token balance\n  function getLuckyNumberTokenBalance(address _address) public view returns (uint) {\n    return luckyNumberToken.balanceOf(_address);\n  }\n\n  /// @notice Get count of available games\n  /// @dev Get count of available games from the games\n  function getNumberOfAvailableGames() public view returns (uint) {\n    return games.length;\n  }\n}",
  "sourcePath": "/home/slavisa/blockchain-developer-bootcamp-final-project/contracts/GuessNumber.sol",
  "compiler": {
    "name": "solc",
    "version": "0.8.10+commit.fc410830.Emscripten.clang"
  },
  "schemaVersion": "3.4.3",
  "updatedAt": "2021-11-27T20:13:36.368Z",
  "networkType": "ethereum",
  "devdoc": {
    "events": {
      "GuessingNumberFailed(address)": {
        "details": "emited when player missed the number",
        "params": {
          "player": "address of player that missed the number"
        }
      },
      "GuessingNumberGameAdd(address)": {
        "details": "emited when new game is created",
        "params": {
          "operator": "address of operator"
        }
      },
      "GuessingNumberSuccess(address)": {
        "details": "emited when player succeed to guess the number",
        "params": {
          "player": "address of player that missed the number"
        }
      }
    },
    "kind": "dev",
    "methods": {
      "createGuessingNumberGame(uint256)": {
        "details": "create and add new game into list of games with submitted number",
        "params": {
          "_numberToBeGuessed": "number that user should guess"
        }
      },
      "getLuckyNumberTokenBalance(address)": {
        "details": "Based on provided address get lucky token balance"
      },
      "getNumberOfAvailableGames()": {
        "details": "Get count of available games from the games"
      },
      "getNumberOfPlayerLosses()": {
        "details": "Get number of losses base on sender address"
      },
      "getNumberOfPlayerWinnings()": {
        "details": "Get number of winnings base on sender address"
      },
      "guessTheNumber(uint256)": {
        "details": "create and add new game into list of games with submitted number",
        "params": {
          "_numberGuessed": "number that user should guess"
        }
      },
      "owner()": {
        "details": "Returns the address of the current owner."
      },
      "renounceOwnership()": {
        "details": "Leaves the contract without owner. It will not be possible to call `onlyOwner` functions anymore. Can only be called by the current owner. NOTE: Renouncing ownership will leave the contract without an owner, thereby removing any functionality that is only available to the owner."
      },
      "transferOwnership(address)": {
        "details": "Transfers ownership of the contract to a new account (`newOwner`). Can only be called by the current owner."
      }
    },
    "stateVariables": {
      "gameCounter": {
        "details": "used to store how many games are created"
      },
      "guessNumberOperator": {
        "details": "address of operator that create a games"
      },
      "luckyNumberToken": {
        "details": "lucky number token"
      }
    },
    "version": 1
  },
  "userdoc": {
    "events": {
      "GuessingNumberFailed(address)": {
        "notice": "emited when player missed the number"
      },
      "GuessingNumberGameAdd(address)": {
        "notice": "emited when new game is created"
      },
      "GuessingNumberSuccess(address)": {
        "notice": "emited when player succeed to guess the number"
      }
    },
    "kind": "user",
    "methods": {
      "createGuessingNumberGame(uint256)": {
        "notice": "Create new guessing number game and set initial state"
      },
      "getLuckyNumberTokenBalance(address)": {
        "notice": "Get lucky number token balance"
      },
      "getNumberOfAvailableGames()": {
        "notice": "Get count of available games"
      },
      "getNumberOfPlayerLosses()": {
        "notice": "Get number of losses"
      },
      "getNumberOfPlayerWinnings()": {
        "notice": "Get number of winnings"
      },
      "guessTheNumber(uint256)": {
        "notice": "Create new guessing number game and set initial state"
      }
    },
    "version": 1
  }
}