{
  "contractName": "GuessNumber",
  "abi": [
    {
      "inputs": [],
      "stateMutability": "nonpayable",
      "type": "constructor"
    },
    {
      "anonymous": false,
      "inputs": [
        {
          "indexed": false,
          "internalType": "address",
          "name": "player",
          "type": "address"
        }
      ],
      "name": "GuessingNumberFailed",
      "type": "event"
    },
    {
      "anonymous": false,
      "inputs": [
        {
          "indexed": false,
          "internalType": "address",
          "name": "operator",
          "type": "address"
        }
      ],
      "name": "GuessingNumberGameAdd",
      "type": "event"
    },
    {
      "anonymous": false,
      "inputs": [
        {
          "indexed": false,
          "internalType": "address",
          "name": "player",
          "type": "address"
        }
      ],
      "name": "GuessingNumberSuccess",
      "type": "event"
    },
    {
      "anonymous": false,
      "inputs": [
        {
          "indexed": true,
          "internalType": "address",
          "name": "previousOwner",
          "type": "address"
        },
        {
          "indexed": true,
          "internalType": "address",
          "name": "newOwner",
          "type": "address"
        }
      ],
      "name": "OwnershipTransferred",
      "type": "event"
    },
    {
      "anonymous": false,
      "inputs": [
        {
          "indexed": true,
          "internalType": "bytes32",
          "name": "role",
          "type": "bytes32"
        },
        {
          "indexed": true,
          "internalType": "bytes32",
          "name": "previousAdminRole",
          "type": "bytes32"
        },
        {
          "indexed": true,
          "internalType": "bytes32",
          "name": "newAdminRole",
          "type": "bytes32"
        }
      ],
      "name": "RoleAdminChanged",
      "type": "event"
    },
    {
      "anonymous": false,
      "inputs": [
        {
          "indexed": true,
          "internalType": "bytes32",
          "name": "role",
          "type": "bytes32"
        },
        {
          "indexed": true,
          "internalType": "address",
          "name": "account",
          "type": "address"
        },
        {
          "indexed": true,
          "internalType": "address",
          "name": "sender",
          "type": "address"
        }
      ],
      "name": "RoleGranted",
      "type": "event"
    },
    {
      "anonymous": false,
      "inputs": [
        {
          "indexed": true,
          "internalType": "bytes32",
          "name": "role",
          "type": "bytes32"
        },
        {
          "indexed": true,
          "internalType": "address",
          "name": "account",
          "type": "address"
        },
        {
          "indexed": true,
          "internalType": "address",
          "name": "sender",
          "type": "address"
        }
      ],
      "name": "RoleRevoked",
      "type": "event"
    },
    {
      "inputs": [],
      "name": "DEFAULT_ADMIN_ROLE",
      "outputs": [
        {
          "internalType": "bytes32",
          "name": "",
          "type": "bytes32"
        }
      ],
      "stateMutability": "view",
      "type": "function",
      "constant": true
    },
    {
      "inputs": [
        {
          "internalType": "bytes32",
          "name": "role",
          "type": "bytes32"
        }
      ],
      "name": "getRoleAdmin",
      "outputs": [
        {
          "internalType": "bytes32",
          "name": "",
          "type": "bytes32"
        }
      ],
      "stateMutability": "view",
      "type": "function",
      "constant": true
    },
    {
      "inputs": [
        {
          "internalType": "bytes32",
          "name": "role",
          "type": "bytes32"
        },
        {
          "internalType": "uint256",
          "name": "index",
          "type": "uint256"
        }
      ],
      "name": "getRoleMember",
      "outputs": [
        {
          "internalType": "address",
          "name": "",
          "type": "address"
        }
      ],
      "stateMutability": "view",
      "type": "function",
      "constant": true
    },
    {
      "inputs": [
        {
          "internalType": "bytes32",
          "name": "role",
          "type": "bytes32"
        }
      ],
      "name": "getRoleMemberCount",
      "outputs": [
        {
          "internalType": "uint256",
          "name": "",
          "type": "uint256"
        }
      ],
      "stateMutability": "view",
      "type": "function",
      "constant": true
    },
    {
      "inputs": [
        {
          "internalType": "bytes32",
          "name": "role",
          "type": "bytes32"
        },
        {
          "internalType": "address",
          "name": "account",
          "type": "address"
        }
      ],
      "name": "grantRole",
      "outputs": [],
      "stateMutability": "nonpayable",
      "type": "function"
    },
    {
      "inputs": [],
      "name": "guessNumberOperator",
      "outputs": [
        {
          "internalType": "address",
          "name": "",
          "type": "address"
        }
      ],
      "stateMutability": "view",
      "type": "function",
      "constant": true
    },
    {
      "inputs": [
        {
          "internalType": "bytes32",
          "name": "role",
          "type": "bytes32"
        },
        {
          "internalType": "address",
          "name": "account",
          "type": "address"
        }
      ],
      "name": "hasRole",
      "outputs": [
        {
          "internalType": "bool",
          "name": "",
          "type": "bool"
        }
      ],
      "stateMutability": "view",
      "type": "function",
      "constant": true
    },
    {
      "inputs": [],
      "name": "owner",
      "outputs": [
        {
          "internalType": "address",
          "name": "",
          "type": "address"
        }
      ],
      "stateMutability": "view",
      "type": "function",
      "constant": true
    },
    {
      "inputs": [],
      "name": "renounceOwnership",
      "outputs": [],
      "stateMutability": "nonpayable",
      "type": "function"
    },
    {
      "inputs": [
        {
          "internalType": "bytes32",
          "name": "role",
          "type": "bytes32"
        },
        {
          "internalType": "address",
          "name": "account",
          "type": "address"
        }
      ],
      "name": "renounceRole",
      "outputs": [],
      "stateMutability": "nonpayable",
      "type": "function"
    },
    {
      "inputs": [
        {
          "internalType": "bytes32",
          "name": "role",
          "type": "bytes32"
        },
        {
          "internalType": "address",
          "name": "account",
          "type": "address"
        }
      ],
      "name": "revokeRole",
      "outputs": [],
      "stateMutability": "nonpayable",
      "type": "function"
    },
    {
      "inputs": [
        {
          "internalType": "bytes4",
          "name": "interfaceId",
          "type": "bytes4"
        }
      ],
      "name": "supportsInterface",
      "outputs": [
        {
          "internalType": "bool",
          "name": "",
          "type": "bool"
        }
      ],
      "stateMutability": "view",
      "type": "function",
      "constant": true
    },
    {
      "inputs": [
        {
          "internalType": "address",
          "name": "newOwner",
          "type": "address"
        }
      ],
      "name": "transferOwnership",
      "outputs": [],
      "stateMutability": "nonpayable",
      "type": "function"
    },
    {
      "inputs": [],
      "name": "isTheOwner",
      "outputs": [
        {
          "internalType": "bool",
          "name": "",
          "type": "bool"
        }
      ],
      "stateMutability": "view",
      "type": "function",
      "constant": true
    },
    {
      "inputs": [
        {
          "internalType": "uint256",
          "name": "_numberToBeGuessed",
          "type": "uint256"
        }
      ],
      "name": "createGuessingNumberGame",
      "outputs": [],
      "stateMutability": "nonpayable",
      "type": "function"
    },
    {
      "inputs": [
        {
          "internalType": "uint256",
          "name": "_numberGuessed",
          "type": "uint256"
        }
      ],
      "name": "guessTheNumber",
      "outputs": [
        {
          "internalType": "bool",
          "name": "",
          "type": "bool"
        }
      ],
      "stateMutability": "nonpayable",
      "type": "function"
    },
    {
      "inputs": [],
      "name": "getNumberOfPlayerWinnings",
      "outputs": [
        {
          "internalType": "uint256",
          "name": "",
          "type": "uint256"
        }
      ],
      "stateMutability": "view",
      "type": "function",
      "constant": true
    },
    {
      "inputs": [],
      "name": "getNumberOfPlayerLosses",
      "outputs": [
        {
          "internalType": "uint256",
          "name": "",
          "type": "uint256"
        }
      ],
      "stateMutability": "view",
      "type": "function",
      "constant": true
    },
    {
      "inputs": [
        {
          "internalType": "address",
          "name": "_address",
          "type": "address"
        }
      ],
      "name": "getLuckyNumberTokenBalance",
      "outputs": [
        {
          "internalType": "uint256",
          "name": "",
          "type": "uint256"
        }
      ],
      "stateMutability": "view",
      "type": "function",
      "constant": true
    },
    {
      "inputs": [],
      "name": "getNumberOfAvailableGames",
      "outputs": [
        {
          "internalType": "uint256",
          "name": "",
          "type": "uint256"
        }
      ],
      "stateMutability": "view",
      "type": "function",
      "constant": true
    }
  ],
  "bytecode": "0x60806040523480156200001157600080fd5b506200003262000026620000f460201b60201c565b620000fc60201b60201c565b62000042620001c060201b60201c565b600460006101000a81548173ffffffffffffffffffffffffffffffffffffffff021916908373ffffffffffffffffffffffffffffffffffffffff1602179055506040516200009090620001e9565b604051809103906000f080158015620000ad573d6000803e3d6000fd5b50600560006101000a81548173ffffffffffffffffffffffffffffffffffffffff021916908373ffffffffffffffffffffffffffffffffffffffff160217905550620001f7565b600033905090565b60008060009054906101000a900473ffffffffffffffffffffffffffffffffffffffff169050816000806101000a81548173ffffffffffffffffffffffffffffffffffffffff021916908373ffffffffffffffffffffffffffffffffffffffff1602179055508173ffffffffffffffffffffffffffffffffffffffff168173ffffffffffffffffffffffffffffffffffffffff167f8be0079c531659141344cd1fd0a4f28419497f9722a3daafe3b4186f6b6457e060405160405180910390a35050565b60008060009054906101000a900473ffffffffffffffffffffffffffffffffffffffff16905090565b6129d68062002abf83390190565b6128b880620002076000396000f3fe608060405234801561001057600080fd5b506004361061012c5760003560e01c80639010d07c116100ad578063ca15c87311610071578063ca15c87314610333578063d4f639d714610363578063d547741f14610393578063f2fde38b146103af578063ff9c985f146103cb5761012c565b80639010d07c1461027b57806391d14854146102ab578063a217fddf146102db578063a4e7ca95146102f9578063bd939ea2146103155761012c565b80633d6c62d3116100f45780633d6c62d3146101e75780636c741a0814610205578063715018a614610235578063716fd06a1461023f5780638da5cb5b1461025d5761012c565b806301ffc9a714610131578063248a9ca31461016157806325803478146101915780632f2ff15d146101af57806336568abe146101cb575b600080fd5b61014b60048036038101906101469190611c96565b6103e9565b6040516101589190611cde565b60405180910390f35b61017b60048036038101906101769190611d2f565b610463565b6040516101889190611d6b565b60405180910390f35b610199610483565b6040516101a69190611dc7565b60405180910390f35b6101c960048036038101906101c49190611e0e565b6104a9565b005b6101e560048036038101906101e09190611e0e565b6104dd565b005b6101ef610511565b6040516101fc9190611e67565b60405180910390f35b61021f600480360381019061021a9190611e82565b61060b565b60405161022c9190611e67565b60405180910390f35b61023d6106b0565b005b610247610738565b6040516102549190611cde565b60405180910390f35b6102656107a0565b6040516102729190611dc7565b60405180910390f35b61029560048036038101906102909190611edb565b6107c9565b6040516102a29190611dc7565b60405180910390f35b6102c560048036038101906102c09190611e0e565b6107f8565b6040516102d29190611cde565b60405180910390f35b6102e3610863565b6040516102f09190611d6b565b60405180910390f35b610313600480360381019061030e9190611f1b565b61086a565b005b61031d610a4b565b60405161032a9190611e67565b60405180910390f35b61034d60048036038101906103489190611d2f565b610b46565b60405161035a9190611e67565b60405180910390f35b61037d60048036038101906103789190611f1b565b610b6a565b60405161038a9190611cde565b60405180910390f35b6103ad60048036038101906103a89190611e0e565b610f49565b005b6103c960048036038101906103c49190611e82565b610f7d565b005b6103d3611075565b6040516103e09190611e67565b60405180910390f35b60007f5a05180f000000000000000000000000000000000000000000000000000000007bffffffffffffffffffffffffffffffffffffffffffffffffffffffff1916827bffffffffffffffffffffffffffffffffffffffffffffffffffffffff1916148061045c575061045b826110f6565b5b9050919050565b600060016000838152602001908152602001600020600101549050919050565b600460009054906101000a900473ffffffffffffffffffffffffffffffffffffffff1681565b6104b38282611170565b6104d8816002600085815260200190815260200160002061119990919063ffffffff16565b505050565b6104e782826111c9565b61050c816002600085815260200190815260200160002061124c90919063ffffffff16565b505050565b6000806000905060005b600354811015610603573373ffffffffffffffffffffffffffffffffffffffff166006600083815260200190815260200160002060000160009054906101000a900473ffffffffffffffffffffffffffffffffffffffff1673ffffffffffffffffffffffffffffffffffffffff161480156105dc57506002808111156105a4576105a3611f48565b5b6006600083815260200190815260200160002060030160009054906101000a900460ff1660028111156105da576105d9611f48565b5b145b156105f05781806105ec90611fa6565b9250505b80806105fb90611fa6565b91505061051b565b508091505090565b6000600560009054906101000a900473ffffffffffffffffffffffffffffffffffffffff1673ffffffffffffffffffffffffffffffffffffffff166370a08231836040518263ffffffff1660e01b81526004016106689190611dc7565b602060405180830381865afa158015610685573d6000803e3d6000fd5b505050506040513d601f19601f820116820180604052508101906106a99190612004565b9050919050565b6106b861127c565b73ffffffffffffffffffffffffffffffffffffffff166106d66107a0565b73ffffffffffffffffffffffffffffffffffffffff161461072c576040517f08c379a00000000000000000000000000000000000000000000000000000000081526004016107239061208e565b60405180910390fd5b6107366000611284565b565b6000600460009054906101000a900473ffffffffffffffffffffffffffffffffffffffff1673ffffffffffffffffffffffffffffffffffffffff163373ffffffffffffffffffffffffffffffffffffffff1614610798576000905061079d565b600190505b90565b60008060009054906101000a900473ffffffffffffffffffffffffffffffffffffffff16905090565b60006107f0826002600086815260200190815260200160002061134890919063ffffffff16565b905092915050565b60006001600084815260200190815260200160002060000160008373ffffffffffffffffffffffffffffffffffffffff1673ffffffffffffffffffffffffffffffffffffffff16815260200190815260200160002060009054906101000a900460ff16905092915050565b6000801b81565b61087261127c565b73ffffffffffffffffffffffffffffffffffffffff166108906107a0565b73ffffffffffffffffffffffffffffffffffffffff16146108e6576040517f08c379a00000000000000000000000000000000000000000000000000000000081526004016108dd9061208e565b60405180910390fd5b806000811180156108f75750600b81105b610936576040517f08c379a000000000000000000000000000000000000000000000000000000000815260040161092d906120fa565b60405180910390fd5b600060066000600354815260200190815260200160002060030160006101000a81548160ff0219169083600281111561097257610971611f48565b5b0217905550816006600060035481526020019081526020016000206001018190555060016003546109a3919061211a565b6003819055506007600190806001815401808255809150506001900390600052602060002090602091828204019190069091909190916101000a81548160ff0219169083151502179055507f37797c7d77f5f5f57c132367ded10323b51e535719967c4b8f1ab72310ad97c2600460009054906101000a900473ffffffffffffffffffffffffffffffffffffffff16604051610a3f9190611dc7565b60405180910390a15050565b6000806000905060005b600354811015610b3e573373ffffffffffffffffffffffffffffffffffffffff166006600083815260200190815260200160002060000160009054906101000a900473ffffffffffffffffffffffffffffffffffffffff1673ffffffffffffffffffffffffffffffffffffffff16148015610b17575060016002811115610adf57610ade611f48565b5b6006600083815260200190815260200160002060030160009054906101000a900460ff166002811115610b1557610b14611f48565b5b145b15610b2b578180610b2790611fa6565b9250505b8080610b3690611fa6565b915050610a55565b508091505090565b6000610b6360026000848152602001908152602001600020611362565b9050919050565b600080600090506000600190505b6007805490508111610bf257600115156007600183610b979190612170565b81548110610ba857610ba76121a4565b5b90600052602060002090602091828204019190069054906101000a900460ff1615151415610bdf578180610bdb90611fa6565b9250505b8080610bea90611fa6565b915050610b78565b5060058111610c36576040517f08c379a0000000000000000000000000000000000000000000000000000000008152600401610c2d9061221f565b60405180910390fd5b3373ffffffffffffffffffffffffffffffffffffffff16600460009054906101000a900473ffffffffffffffffffffffffffffffffffffffff1673ffffffffffffffffffffffffffffffffffffffff161415610cc7576040517f08c379a0000000000000000000000000000000000000000000000000000000008152600401610cbe906122b1565b60405180910390fd5b6000610cd1611377565b9050336006600083815260200190815260200160002060000160006101000a81548173ffffffffffffffffffffffffffffffffffffffff021916908373ffffffffffffffffffffffffffffffffffffffff160217905550836006600083815260200190815260200160002060020181905550600060078281548110610d5957610d586121a4565b5b90600052602060002090602091828204019190066101000a81548160ff021916908315150217905550600660008281526020019081526020016000206001015460066000838152602001908152602001600020600201541415610ec75760016006600083815260200190815260200160002060030160006101000a81548160ff02191690836002811115610df057610def611f48565b5b0217905550600560009054906101000a900473ffffffffffffffffffffffffffffffffffffffff1673ffffffffffffffffffffffffffffffffffffffff166340c10f19336101f46040518363ffffffff1660e01b8152600401610e54929190612316565b600060405180830381600087803b158015610e6e57600080fd5b505af1158015610e82573d6000803e3d6000fd5b505050507f9e9baf7a7321b47d91916729c25dcb16df81fe5f4debe424bdbb4bd9b1af97ee33604051610eb59190611dc7565b60405180910390a16001925050610f43565b60026006600083815260200190815260200160002060030160006101000a81548160ff02191690836002811115610f0157610f00611f48565b5b02179055507faa4966ff60f4429a6fbddef4c7a97ef9538281a119fe572c0a6f0f5f1a896b8633604051610f359190611dc7565b60405180910390a160009250505b50919050565b610f5382826114f5565b610f78816002600085815260200190815260200160002061124c90919063ffffffff16565b505050565b610f8561127c565b73ffffffffffffffffffffffffffffffffffffffff16610fa36107a0565b73ffffffffffffffffffffffffffffffffffffffff1614610ff9576040517f08c379a0000000000000000000000000000000000000000000000000000000008152600401610ff09061208e565b60405180910390fd5b600073ffffffffffffffffffffffffffffffffffffffff168173ffffffffffffffffffffffffffffffffffffffff161415611069576040517f08c379a0000000000000000000000000000000000000000000000000000000008152600401611060906123b1565b60405180910390fd5b61107281611284565b50565b6000806000905060005b6007805490508110156110ee5760011515600782815481106110a4576110a36121a4565b5b90600052602060002090602091828204019190069054906101000a900460ff16151514156110db5781806110d790611fa6565b9250505b80806110e690611fa6565b91505061107f565b508091505090565b60007f7965db0b000000000000000000000000000000000000000000000000000000007bffffffffffffffffffffffffffffffffffffffffffffffffffffffff1916827bffffffffffffffffffffffffffffffffffffffffffffffffffffffff1916148061116957506111688261151e565b5b9050919050565b61117982610463565b61118a8161118561127c565b611588565b6111948383611625565b505050565b60006111c1836000018373ffffffffffffffffffffffffffffffffffffffff1660001b611705565b905092915050565b6111d161127c565b73ffffffffffffffffffffffffffffffffffffffff168173ffffffffffffffffffffffffffffffffffffffff161461123e576040517f08c379a000000000000000000000000000000000000000000000000000000000815260040161123590612443565b60405180910390fd5b6112488282611775565b5050565b6000611274836000018373ffffffffffffffffffffffffffffffffffffffff1660001b611857565b905092915050565b600033905090565b60008060009054906101000a900473ffffffffffffffffffffffffffffffffffffffff169050816000806101000a81548173ffffffffffffffffffffffffffffffffffffffff021916908373ffffffffffffffffffffffffffffffffffffffff1602179055508173ffffffffffffffffffffffffffffffffffffffff168173ffffffffffffffffffffffffffffffffffffffff167f8be0079c531659141344cd1fd0a4f28419497f9722a3daafe3b4186f6b6457e060405160405180910390a35050565b6000611357836000018361196b565b60001c905092915050565b600061137082600001611996565b9050919050565b600080600090506000805b6007805490508110156113f15760011515600782815481106113a7576113a66121a4565b5b90600052602060002090602091828204019190069054906101000a900460ff16151514156113de5782806113da90611fa6565b9350505b80806113e990611fa6565b915050611382565b5060006001836113ff6119a7565b6114099190612492565b611413919061211a565b90506000805b6007805490508110156114a157600115156007828154811061143e5761143d6121a4565b5b90600052602060002090602091828204019190069054906101000a900460ff161515141561147557818061147190611fa6565b9250505b8282141561148e576001935080955050505050506114f2565b808061149990611fa6565b915050611419565b5060001515831515146114e9576040517f08c379a00000000000000000000000000000000000000000000000000000000081526004016114e09061250f565b60405180910390fd5b60009450505050505b90565b6114fe82610463565b61150f8161150a61127c565b611588565b6115198383611775565b505050565b60007f01ffc9a7000000000000000000000000000000000000000000000000000000007bffffffffffffffffffffffffffffffffffffffffffffffffffffffff1916827bffffffffffffffffffffffffffffffffffffffffffffffffffffffff1916149050919050565b61159282826107f8565b611621576115b78173ffffffffffffffffffffffffffffffffffffffff1660146119da565b6115c58360001c60206119da565b6040516020016115d6929190612641565b6040516020818303038152906040526040517f08c379a000000000000000000000000000000000000000000000000000000000815260040161161891906126c5565b60405180910390fd5b5050565b61162f82826107f8565b61170157600180600084815260200190815260200160002060000160008373ffffffffffffffffffffffffffffffffffffffff1673ffffffffffffffffffffffffffffffffffffffff16815260200190815260200160002060006101000a81548160ff0219169083151502179055506116a661127c565b73ffffffffffffffffffffffffffffffffffffffff168173ffffffffffffffffffffffffffffffffffffffff16837f2f8788117e7eff1d82e926ec794901d17c78024a50270940304540a733656f0d60405160405180910390a45b5050565b60006117118383611c16565b61176a57826000018290806001815401808255809150506001900390600052602060002001600090919091909150558260000180549050836001016000848152602001908152602001600020819055506001905061176f565b600090505b92915050565b61177f82826107f8565b156118535760006001600084815260200190815260200160002060000160008373ffffffffffffffffffffffffffffffffffffffff1673ffffffffffffffffffffffffffffffffffffffff16815260200190815260200160002060006101000a81548160ff0219169083151502179055506117f861127c565b73ffffffffffffffffffffffffffffffffffffffff168173ffffffffffffffffffffffffffffffffffffffff16837ff6391f5c32d9c69d2a47ea670b442974b53935d1edc7fd64eb21e047a839171b60405160405180910390a45b5050565b6000808360010160008481526020019081526020016000205490506000811461195f5760006001826118899190612170565b90506000600186600001805490506118a19190612170565b90508181146119105760008660000182815481106118c2576118c16121a4565b5b90600052602060002001549050808760000184815481106118e6576118e56121a4565b5b90600052602060002001819055508387600101600083815260200190815260200160002081905550505b85600001805480611924576119236126e7565b5b600190038181906000526020600020016000905590558560010160008681526020019081526020016000206000905560019350505050611965565b60009150505b92915050565b6000826000018281548110611983576119826121a4565b5b9060005260206000200154905092915050565b600081600001805490509050919050565b600044426040516020016119bc929190612737565b6040516020818303038152906040528051906020012060001c905090565b6060600060028360026119ed9190612763565b6119f7919061211a565b67ffffffffffffffff811115611a1057611a0f6127bd565b5b6040519080825280601f01601f191660200182016040528015611a425781602001600182028036833780820191505090505b5090507f300000000000000000000000000000000000000000000000000000000000000081600081518110611a7a57611a796121a4565b5b60200101907effffffffffffffffffffffffffffffffffffffffffffffffffffffffffffff1916908160001a9053507f780000000000000000000000000000000000000000000000000000000000000081600181518110611ade57611add6121a4565b5b60200101907effffffffffffffffffffffffffffffffffffffffffffffffffffffffffffff1916908160001a90535060006001846002611b1e9190612763565b611b28919061211a565b90505b6001811115611bc8577f3031323334353637383961626364656600000000000000000000000000000000600f861660108110611b6a57611b696121a4565b5b1a60f81b828281518110611b8157611b806121a4565b5b60200101907effffffffffffffffffffffffffffffffffffffffffffffffffffffffffffff1916908160001a905350600485901c945080611bc1906127ec565b9050611b2b565b5060008414611c0c576040517f08c379a0000000000000000000000000000000000000000000000000000000008152600401611c0390612862565b60405180910390fd5b8091505092915050565b600080836001016000848152602001908152602001600020541415905092915050565b600080fd5b60007fffffffff0000000000000000000000000000000000000000000000000000000082169050919050565b611c7381611c3e565b8114611c7e57600080fd5b50565b600081359050611c9081611c6a565b92915050565b600060208284031215611cac57611cab611c39565b5b6000611cba84828501611c81565b91505092915050565b60008115159050919050565b611cd881611cc3565b82525050565b6000602082019050611cf36000830184611ccf565b92915050565b6000819050919050565b611d0c81611cf9565b8114611d1757600080fd5b50565b600081359050611d2981611d03565b92915050565b600060208284031215611d4557611d44611c39565b5b6000611d5384828501611d1a565b91505092915050565b611d6581611cf9565b82525050565b6000602082019050611d806000830184611d5c565b92915050565b600073ffffffffffffffffffffffffffffffffffffffff82169050919050565b6000611db182611d86565b9050919050565b611dc181611da6565b82525050565b6000602082019050611ddc6000830184611db8565b92915050565b611deb81611da6565b8114611df657600080fd5b50565b600081359050611e0881611de2565b92915050565b60008060408385031215611e2557611e24611c39565b5b6000611e3385828601611d1a565b9250506020611e4485828601611df9565b9150509250929050565b6000819050919050565b611e6181611e4e565b82525050565b6000602082019050611e7c6000830184611e58565b92915050565b600060208284031215611e9857611e97611c39565b5b6000611ea684828501611df9565b91505092915050565b611eb881611e4e565b8114611ec357600080fd5b50565b600081359050611ed581611eaf565b92915050565b60008060408385031215611ef257611ef1611c39565b5b6000611f0085828601611d1a565b9250506020611f1185828601611ec6565b9150509250929050565b600060208284031215611f3157611f30611c39565b5b6000611f3f84828501611ec6565b91505092915050565b7f4e487b7100000000000000000000000000000000000000000000000000000000600052602160045260246000fd5b7f4e487b7100000000000000000000000000000000000000000000000000000000600052601160045260246000fd5b6000611fb182611e4e565b91507fffffffffffffffffffffffffffffffffffffffffffffffffffffffffffffffff821415611fe457611fe3611f77565b5b600182019050919050565b600081519050611ffe81611eaf565b92915050565b60006020828403121561201a57612019611c39565b5b600061202884828501611fef565b91505092915050565b600082825260208201905092915050565b7f4f776e61626c653a2063616c6c6572206973206e6f7420746865206f776e6572600082015250565b6000612078602083612031565b915061208382612042565b602082019050919050565b600060208201905081810360008301526120a78161206b565b9050919050565b7f4e756d626572206d757374206265206265747765656e203120616e6420313000600082015250565b60006120e4601f83612031565b91506120ef826120ae565b602082019050919050565b60006020820190508181036000830152612113816120d7565b9050919050565b600061212582611e4e565b915061213083611e4e565b9250827fffffffffffffffffffffffffffffffffffffffffffffffffffffffffffffffff0382111561216557612164611f77565b5b828201905092915050565b600061217b82611e4e565b915061218683611e4e565b92508282101561219957612198611f77565b5b828203905092915050565b7f4e487b7100000000000000000000000000000000000000000000000000000000600052603260045260246000fd5b7f47616d65206973206e6f7420726561647920746f20626520706c617965640000600082015250565b6000612209601e83612031565b9150612214826121d3565b602082019050919050565b60006020820190508181036000830152612238816121fc565b9050919050565b7f4f776e6572206f66207468652067616d652063616e206e6f742067756573732060008201527f746865206e756d62657273000000000000000000000000000000000000000000602082015250565b600061229b602b83612031565b91506122a68261223f565b604082019050919050565b600060208201905081810360008301526122ca8161228e565b9050919050565b6000819050919050565b6000819050919050565b60006123006122fb6122f6846122d1565b6122db565b611e4e565b9050919050565b612310816122e5565b82525050565b600060408201905061232b6000830185611db8565b6123386020830184612307565b9392505050565b7f4f776e61626c653a206e6577206f776e657220697320746865207a65726f206160008201527f6464726573730000000000000000000000000000000000000000000000000000602082015250565b600061239b602683612031565b91506123a68261233f565b604082019050919050565b600060208201905081810360008301526123ca8161238e565b9050919050565b7f416363657373436f6e74726f6c3a2063616e206f6e6c792072656e6f756e636560008201527f20726f6c657320666f722073656c660000000000000000000000000000000000602082015250565b600061242d602f83612031565b9150612438826123d1565b604082019050919050565b6000602082019050818103600083015261245c81612420565b9050919050565b7f4e487b7100000000000000000000000000000000000000000000000000000000600052601260045260246000fd5b600061249d82611e4e565b91506124a883611e4e565b9250826124b8576124b7612463565b5b828206905092915050565b7f47616d6520636f756c64206e6f7420626520666f756e64000000000000000000600082015250565b60006124f9601783612031565b9150612504826124c3565b602082019050919050565b60006020820190508181036000830152612528816124ec565b9050919050565b600081905092915050565b7f416363657373436f6e74726f6c3a206163636f756e7420000000000000000000600082015250565b600061257060178361252f565b915061257b8261253a565b601782019050919050565b600081519050919050565b60005b838110156125af578082015181840152602081019050612594565b838111156125be576000848401525b50505050565b60006125cf82612586565b6125d9818561252f565b93506125e9818560208601612591565b80840191505092915050565b7f206973206d697373696e6720726f6c6520000000000000000000000000000000600082015250565b600061262b60118361252f565b9150612636826125f5565b601182019050919050565b600061264c82612563565b915061265882856125c4565b91506126638261261e565b915061266f82846125c4565b91508190509392505050565b6000601f19601f8301169050919050565b600061269782612586565b6126a18185612031565b93506126b1818560208601612591565b6126ba8161267b565b840191505092915050565b600060208201905081810360008301526126df818461268c565b905092915050565b7f4e487b7100000000000000000000000000000000000000000000000000000000600052603160045260246000fd5b6000819050919050565b61273161272c82611e4e565b612716565b82525050565b60006127438285612720565b6020820191506127538284612720565b6020820191508190509392505050565b600061276e82611e4e565b915061277983611e4e565b9250817fffffffffffffffffffffffffffffffffffffffffffffffffffffffffffffffff04831182151516156127b2576127b1611f77565b5b828202905092915050565b7f4e487b7100000000000000000000000000000000000000000000000000000000600052604160045260246000fd5b60006127f782611e4e565b9150600082141561280b5761280a611f77565b5b600182039050919050565b7f537472696e67733a20686578206c656e67746820696e73756666696369656e74600082015250565b600061284c602083612031565b915061285782612816565b602082019050919050565b6000602082019050818103600083015261287b8161283f565b905091905056fea2646970667358221220dc654b2ff21def1f57697d096f7ce76a8d07369ce4adc3ab678494e8c021335d64736f6c634300080a003360806040523480156200001157600080fd5b506040518060400160405280600b81526020017f4c75636b794e756d6265720000000000000000000000000000000000000000008152506040518060400160405280600381526020017f4c4e54000000000000000000000000000000000000000000000000000000000081525081600490805190602001906200009692919062000406565b508060059080519060200190620000af92919062000406565b505050620000d1336c01431e0fae6d7217caa00000006200010960201b60201c565b620001037f9f2df0fed2c77648de5860a4cc508cd0818c85b8b8a1ab4ceeef8d981c8956a6336200028360201b60201c565b62000662565b600073ffffffffffffffffffffffffffffffffffffffff168273ffffffffffffffffffffffffffffffffffffffff1614156200017c576040517f08c379a0000000000000000000000000000000000000000000000000000000008152600401620001739062000517565b60405180910390fd5b62000190600083836200029960201b60201c565b8060036000828254620001a4919062000572565b9250508190555080600160008473ffffffffffffffffffffffffffffffffffffffff1673ffffffffffffffffffffffffffffffffffffffff1681526020019081526020016000206000828254620001fc919062000572565b925050819055508173ffffffffffffffffffffffffffffffffffffffff16600073ffffffffffffffffffffffffffffffffffffffff167fddf252ad1be2c89b69c2b068fc378daa952ba7f163c4a11628f55a4df523b3ef83604051620002639190620005e0565b60405180910390a36200027f600083836200029e60201b60201c565b5050565b620002958282620002a360201b60201c565b5050565b505050565b505050565b620002b582826200039460201b60201c565b6200039057600160008084815260200190815260200160002060000160008373ffffffffffffffffffffffffffffffffffffffff1673ffffffffffffffffffffffffffffffffffffffff16815260200190815260200160002060006101000a81548160ff02191690831515021790555062000335620003fe60201b60201c565b73ffffffffffffffffffffffffffffffffffffffff168173ffffffffffffffffffffffffffffffffffffffff16837f2f8788117e7eff1d82e926ec794901d17c78024a50270940304540a733656f0d60405160405180910390a45b5050565b600080600084815260200190815260200160002060000160008373ffffffffffffffffffffffffffffffffffffffff1673ffffffffffffffffffffffffffffffffffffffff16815260200190815260200160002060009054906101000a900460ff16905092915050565b600033905090565b82805462000414906200062c565b90600052602060002090601f01602090048101928262000438576000855562000484565b82601f106200045357805160ff191683800117855562000484565b8280016001018555821562000484579182015b828111156200048357825182559160200191906001019062000466565b5b50905062000493919062000497565b5090565b5b80821115620004b257600081600090555060010162000498565b5090565b600082825260208201905092915050565b7f45524332303a206d696e7420746f20746865207a65726f206164647265737300600082015250565b6000620004ff601f83620004b6565b91506200050c82620004c7565b602082019050919050565b600060208201905081810360008301526200053281620004f0565b9050919050565b6000819050919050565b7f4e487b7100000000000000000000000000000000000000000000000000000000600052601160045260246000fd5b60006200057f8262000539565b91506200058c8362000539565b9250827fffffffffffffffffffffffffffffffffffffffffffffffffffffffffffffffff03821115620005c457620005c362000543565b5b828201905092915050565b620005da8162000539565b82525050565b6000602082019050620005f76000830184620005cf565b92915050565b7f4e487b7100000000000000000000000000000000000000000000000000000000600052602260045260246000fd5b600060028204905060018216806200064557607f821691505b602082108114156200065c576200065b620005fd565b5b50919050565b61236480620006726000396000f3fe608060405234801561001057600080fd5b506004361061012c5760003560e01c806340c10f19116100ad578063a457c2d711610071578063a457c2d71461036b578063a9059cbb1461039b578063d5391393146103cb578063d547741f146103e9578063dd62ed3e146104055761012c565b806340c10f19146102b357806370a08231146102cf57806391d14854146102ff57806395d89b411461032f578063a217fddf1461034d5761012c565b8063248a9ca3116100f4578063248a9ca3146101fd5780632f2ff15d1461022d578063313ce5671461024957806336568abe1461026757806339509351146102835761012c565b806301ffc9a71461013157806306fdde0314610161578063095ea7b31461017f57806318160ddd146101af57806323b872dd146101cd575b600080fd5b61014b600480360381019061014691906116a4565b610435565b60405161015891906116ec565b60405180910390f35b6101696104af565b60405161017691906117a0565b60405180910390f35b61019960048036038101906101949190611856565b610541565b6040516101a691906116ec565b60405180910390f35b6101b761055f565b6040516101c491906118a5565b60405180910390f35b6101e760048036038101906101e291906118c0565b610569565b6040516101f491906116ec565b60405180910390f35b61021760048036038101906102129190611949565b610661565b6040516102249190611985565b60405180910390f35b610247600480360381019061024291906119a0565b610680565b005b6102516106a9565b60405161025e91906119fc565b60405180910390f35b610281600480360381019061027c91906119a0565b6106b2565b005b61029d60048036038101906102989190611856565b610735565b6040516102aa91906116ec565b60405180910390f35b6102cd60048036038101906102c89190611856565b6107e1565b005b6102e960048036038101906102e49190611a17565b610858565b6040516102f691906118a5565b60405180910390f35b610319600480360381019061031491906119a0565b6108a1565b60405161032691906116ec565b60405180910390f35b61033761090b565b60405161034491906117a0565b60405180910390f35b61035561099d565b6040516103629190611985565b60405180910390f35b61038560048036038101906103809190611856565b6109a4565b60405161039291906116ec565b60405180910390f35b6103b560048036038101906103b09190611856565b610a8f565b6040516103c291906116ec565b60405180910390f35b6103d3610aad565b6040516103e09190611985565b60405180910390f35b61040360048036038101906103fe91906119a0565b610ad1565b005b61041f600480360381019061041a9190611a44565b610afa565b60405161042c91906118a5565b60405180910390f35b60007f7965db0b000000000000000000000000000000000000000000000000000000007bffffffffffffffffffffffffffffffffffffffffffffffffffffffff1916827bffffffffffffffffffffffffffffffffffffffffffffffffffffffff191614806104a857506104a782610b81565b5b9050919050565b6060600480546104be90611ab3565b80601f01602080910402602001604051908101604052809291908181526020018280546104ea90611ab3565b80156105375780601f1061050c57610100808354040283529160200191610537565b820191906000526020600020905b81548152906001019060200180831161051a57829003601f168201915b5050505050905090565b600061055561054e610beb565b8484610bf3565b6001905092915050565b6000600354905090565b6000610576848484610dbe565b6000600260008673ffffffffffffffffffffffffffffffffffffffff1673ffffffffffffffffffffffffffffffffffffffff16815260200190815260200160002060006105c1610beb565b73ffffffffffffffffffffffffffffffffffffffff1673ffffffffffffffffffffffffffffffffffffffff16815260200190815260200160002054905082811015610641576040517f08c379a000000000000000000000000000000000000000000000000000000000815260040161063890611b57565b60405180910390fd5b6106558561064d610beb565b858403610bf3565b60019150509392505050565b6000806000838152602001908152602001600020600101549050919050565b61068982610661565b61069a81610695610beb565b611042565b6106a483836110df565b505050565b60006012905090565b6106ba610beb565b73ffffffffffffffffffffffffffffffffffffffff168173ffffffffffffffffffffffffffffffffffffffff1614610727576040517f08c379a000000000000000000000000000000000000000000000000000000000815260040161071e90611be9565b60405180910390fd5b61073182826111bf565b5050565b60006107d7610742610beb565b848460026000610750610beb565b73ffffffffffffffffffffffffffffffffffffffff1673ffffffffffffffffffffffffffffffffffffffff16815260200190815260200160002060008873ffffffffffffffffffffffffffffffffffffffff1673ffffffffffffffffffffffffffffffffffffffff168152602001908152602001600020546107d29190611c38565b610bf3565b6001905092915050565b61080b7f9f2df0fed2c77648de5860a4cc508cd0818c85b8b8a1ab4ceeef8d981c8956a6336108a1565b61084a576040517f08c379a000000000000000000000000000000000000000000000000000000000815260040161084190611cda565b60405180910390fd5b61085482826112a0565b5050565b6000600160008373ffffffffffffffffffffffffffffffffffffffff1673ffffffffffffffffffffffffffffffffffffffff168152602001908152602001600020549050919050565b600080600084815260200190815260200160002060000160008373ffffffffffffffffffffffffffffffffffffffff1673ffffffffffffffffffffffffffffffffffffffff16815260200190815260200160002060009054906101000a900460ff16905092915050565b60606005805461091a90611ab3565b80601f016020809104026020016040519081016040528092919081815260200182805461094690611ab3565b80156109935780601f1061096857610100808354040283529160200191610993565b820191906000526020600020905b81548152906001019060200180831161097657829003601f168201915b5050505050905090565b6000801b81565b600080600260006109b3610beb565b73ffffffffffffffffffffffffffffffffffffffff1673ffffffffffffffffffffffffffffffffffffffff16815260200190815260200160002060008573ffffffffffffffffffffffffffffffffffffffff1673ffffffffffffffffffffffffffffffffffffffff16815260200190815260200160002054905082811015610a70576040517f08c379a0000000000000000000000000000000000000000000000000000000008152600401610a6790611d6c565b60405180910390fd5b610a84610a7b610beb565b85858403610bf3565b600191505092915050565b6000610aa3610a9c610beb565b8484610dbe565b6001905092915050565b7f9f2df0fed2c77648de5860a4cc508cd0818c85b8b8a1ab4ceeef8d981c8956a681565b610ada82610661565b610aeb81610ae6610beb565b611042565b610af583836111bf565b505050565b6000600260008473ffffffffffffffffffffffffffffffffffffffff1673ffffffffffffffffffffffffffffffffffffffff16815260200190815260200160002060008373ffffffffffffffffffffffffffffffffffffffff1673ffffffffffffffffffffffffffffffffffffffff16815260200190815260200160002054905092915050565b60007f01ffc9a7000000000000000000000000000000000000000000000000000000007bffffffffffffffffffffffffffffffffffffffffffffffffffffffff1916827bffffffffffffffffffffffffffffffffffffffffffffffffffffffff1916149050919050565b600033905090565b600073ffffffffffffffffffffffffffffffffffffffff168373ffffffffffffffffffffffffffffffffffffffff161415610c63576040517f08c379a0000000000000000000000000000000000000000000000000000000008152600401610c5a90611dfe565b60405180910390fd5b600073ffffffffffffffffffffffffffffffffffffffff168273ffffffffffffffffffffffffffffffffffffffff161415610cd3576040517f08c379a0000000000000000000000000000000000000000000000000000000008152600401610cca90611e90565b60405180910390fd5b80600260008573ffffffffffffffffffffffffffffffffffffffff1673ffffffffffffffffffffffffffffffffffffffff16815260200190815260200160002060008473ffffffffffffffffffffffffffffffffffffffff1673ffffffffffffffffffffffffffffffffffffffff168152602001908152602001600020819055508173ffffffffffffffffffffffffffffffffffffffff168373ffffffffffffffffffffffffffffffffffffffff167f8c5be1e5ebec7d5bd14f71427d1e84f3dd0314c0f7b2291e5b200ac8c7c3b92583604051610db191906118a5565b60405180910390a3505050565b600073ffffffffffffffffffffffffffffffffffffffff168373ffffffffffffffffffffffffffffffffffffffff161415610e2e576040517f08c379a0000000000000000000000000000000000000000000000000000000008152600401610e2590611f22565b60405180910390fd5b600073ffffffffffffffffffffffffffffffffffffffff168273ffffffffffffffffffffffffffffffffffffffff161415610e9e576040517f08c379a0000000000000000000000000000000000000000000000000000000008152600401610e9590611fb4565b60405180910390fd5b610ea9838383611401565b6000600160008573ffffffffffffffffffffffffffffffffffffffff1673ffffffffffffffffffffffffffffffffffffffff16815260200190815260200160002054905081811015610f30576040517f08c379a0000000000000000000000000000000000000000000000000000000008152600401610f2790612046565b60405180910390fd5b818103600160008673ffffffffffffffffffffffffffffffffffffffff1673ffffffffffffffffffffffffffffffffffffffff1681526020019081526020016000208190555081600160008573ffffffffffffffffffffffffffffffffffffffff1673ffffffffffffffffffffffffffffffffffffffff1681526020019081526020016000206000828254610fc59190611c38565b925050819055508273ffffffffffffffffffffffffffffffffffffffff168473ffffffffffffffffffffffffffffffffffffffff167fddf252ad1be2c89b69c2b068fc378daa952ba7f163c4a11628f55a4df523b3ef8460405161102991906118a5565b60405180910390a361103c848484611406565b50505050565b61104c82826108a1565b6110db576110718173ffffffffffffffffffffffffffffffffffffffff16601461140b565b61107f8360001c602061140b565b60405160200161109092919061213a565b6040516020818303038152906040526040517f08c379a00000000000000000000000000000000000000000000000000000000081526004016110d291906117a0565b60405180910390fd5b5050565b6110e982826108a1565b6111bb57600160008084815260200190815260200160002060000160008373ffffffffffffffffffffffffffffffffffffffff1673ffffffffffffffffffffffffffffffffffffffff16815260200190815260200160002060006101000a81548160ff021916908315150217905550611160610beb565b73ffffffffffffffffffffffffffffffffffffffff168173ffffffffffffffffffffffffffffffffffffffff16837f2f8788117e7eff1d82e926ec794901d17c78024a50270940304540a733656f0d60405160405180910390a45b5050565b6111c982826108a1565b1561129c57600080600084815260200190815260200160002060000160008373ffffffffffffffffffffffffffffffffffffffff1673ffffffffffffffffffffffffffffffffffffffff16815260200190815260200160002060006101000a81548160ff021916908315150217905550611241610beb565b73ffffffffffffffffffffffffffffffffffffffff168173ffffffffffffffffffffffffffffffffffffffff16837ff6391f5c32d9c69d2a47ea670b442974b53935d1edc7fd64eb21e047a839171b60405160405180910390a45b5050565b600073ffffffffffffffffffffffffffffffffffffffff168273ffffffffffffffffffffffffffffffffffffffff161415611310576040517f08c379a0000000000000000000000000000000000000000000000000000000008152600401611307906121c0565b60405180910390fd5b61131c60008383611401565b806003600082825461132e9190611c38565b9250508190555080600160008473ffffffffffffffffffffffffffffffffffffffff1673ffffffffffffffffffffffffffffffffffffffff16815260200190815260200160002060008282546113849190611c38565b925050819055508173ffffffffffffffffffffffffffffffffffffffff16600073ffffffffffffffffffffffffffffffffffffffff167fddf252ad1be2c89b69c2b068fc378daa952ba7f163c4a11628f55a4df523b3ef836040516113e991906118a5565b60405180910390a36113fd60008383611406565b5050565b505050565b505050565b60606000600283600261141e91906121e0565b6114289190611c38565b67ffffffffffffffff8111156114415761144061223a565b5b6040519080825280601f01601f1916602001820160405280156114735781602001600182028036833780820191505090505b5090507f3000000000000000000000000000000000000000000000000000000000000000816000815181106114ab576114aa612269565b5b60200101907effffffffffffffffffffffffffffffffffffffffffffffffffffffffffffff1916908160001a9053507f78000000000000000000000000000000000000000000000000000000000000008160018151811061150f5761150e612269565b5b60200101907effffffffffffffffffffffffffffffffffffffffffffffffffffffffffffff1916908160001a9053506000600184600261154f91906121e0565b6115599190611c38565b90505b60018111156115f9577f3031323334353637383961626364656600000000000000000000000000000000600f86166010811061159b5761159a612269565b5b1a60f81b8282815181106115b2576115b1612269565b5b60200101907effffffffffffffffffffffffffffffffffffffffffffffffffffffffffffff1916908160001a905350600485901c9450806115f290612298565b905061155c565b506000841461163d576040517f08c379a00000000000000000000000000000000000000000000000000000000081526004016116349061230e565b60405180910390fd5b8091505092915050565b600080fd5b60007fffffffff0000000000000000000000000000000000000000000000000000000082169050919050565b6116818161164c565b811461168c57600080fd5b50565b60008135905061169e81611678565b92915050565b6000602082840312156116ba576116b9611647565b5b60006116c88482850161168f565b91505092915050565b60008115159050919050565b6116e6816116d1565b82525050565b600060208201905061170160008301846116dd565b92915050565b600081519050919050565b600082825260208201905092915050565b60005b83811015611741578082015181840152602081019050611726565b83811115611750576000848401525b50505050565b6000601f19601f8301169050919050565b600061177282611707565b61177c8185611712565b935061178c818560208601611723565b61179581611756565b840191505092915050565b600060208201905081810360008301526117ba8184611767565b905092915050565b600073ffffffffffffffffffffffffffffffffffffffff82169050919050565b60006117ed826117c2565b9050919050565b6117fd816117e2565b811461180857600080fd5b50565b60008135905061181a816117f4565b92915050565b6000819050919050565b61183381611820565b811461183e57600080fd5b50565b6000813590506118508161182a565b92915050565b6000806040838503121561186d5761186c611647565b5b600061187b8582860161180b565b925050602061188c85828601611841565b9150509250929050565b61189f81611820565b82525050565b60006020820190506118ba6000830184611896565b92915050565b6000806000606084860312156118d9576118d8611647565b5b60006118e78682870161180b565b93505060206118f88682870161180b565b925050604061190986828701611841565b9150509250925092565b6000819050919050565b61192681611913565b811461193157600080fd5b50565b6000813590506119438161191d565b92915050565b60006020828403121561195f5761195e611647565b5b600061196d84828501611934565b91505092915050565b61197f81611913565b82525050565b600060208201905061199a6000830184611976565b92915050565b600080604083850312156119b7576119b6611647565b5b60006119c585828601611934565b92505060206119d68582860161180b565b9150509250929050565b600060ff82169050919050565b6119f6816119e0565b82525050565b6000602082019050611a1160008301846119ed565b92915050565b600060208284031215611a2d57611a2c611647565b5b6000611a3b8482850161180b565b91505092915050565b60008060408385031215611a5b57611a5a611647565b5b6000611a698582860161180b565b9250506020611a7a8582860161180b565b9150509250929050565b7f4e487b7100000000000000000000000000000000000000000000000000000000600052602260045260246000fd5b60006002820490506001821680611acb57607f821691505b60208210811415611adf57611ade611a84565b5b50919050565b7f45524332303a207472616e7366657220616d6f756e742065786365656473206160008201527f6c6c6f77616e6365000000000000000000000000000000000000000000000000602082015250565b6000611b41602883611712565b9150611b4c82611ae5565b604082019050919050565b60006020820190508181036000830152611b7081611b34565b9050919050565b7f416363657373436f6e74726f6c3a2063616e206f6e6c792072656e6f756e636560008201527f20726f6c657320666f722073656c660000000000000000000000000000000000602082015250565b6000611bd3602f83611712565b9150611bde82611b77565b604082019050919050565b60006020820190508181036000830152611c0281611bc6565b9050919050565b7f4e487b7100000000000000000000000000000000000000000000000000000000600052601160045260246000fd5b6000611c4382611820565b9150611c4e83611820565b9250827fffffffffffffffffffffffffffffffffffffffffffffffffffffffffffffffff03821115611c8357611c82611c09565b5b828201905092915050565b7f43616c6c6572206973206e6f742061206d696e74657200000000000000000000600082015250565b6000611cc4601683611712565b9150611ccf82611c8e565b602082019050919050565b60006020820190508181036000830152611cf381611cb7565b9050919050565b7f45524332303a2064656372656173656420616c6c6f77616e63652062656c6f7760008201527f207a65726f000000000000000000000000000000000000000000000000000000602082015250565b6000611d56602583611712565b9150611d6182611cfa565b604082019050919050565b60006020820190508181036000830152611d8581611d49565b9050919050565b7f45524332303a20617070726f76652066726f6d20746865207a65726f2061646460008201527f7265737300000000000000000000000000000000000000000000000000000000602082015250565b6000611de8602483611712565b9150611df382611d8c565b604082019050919050565b60006020820190508181036000830152611e1781611ddb565b9050919050565b7f45524332303a20617070726f766520746f20746865207a65726f20616464726560008201527f7373000000000000000000000000000000000000000000000000000000000000602082015250565b6000611e7a602283611712565b9150611e8582611e1e565b604082019050919050565b60006020820190508181036000830152611ea981611e6d565b9050919050565b7f45524332303a207472616e736665722066726f6d20746865207a65726f20616460008201527f6472657373000000000000000000000000000000000000000000000000000000602082015250565b6000611f0c602583611712565b9150611f1782611eb0565b604082019050919050565b60006020820190508181036000830152611f3b81611eff565b9050919050565b7f45524332303a207472616e7366657220746f20746865207a65726f206164647260008201527f6573730000000000000000000000000000000000000000000000000000000000602082015250565b6000611f9e602383611712565b9150611fa982611f42565b604082019050919050565b60006020820190508181036000830152611fcd81611f91565b9050919050565b7f45524332303a207472616e7366657220616d6f756e742065786365656473206260008201527f616c616e63650000000000000000000000000000000000000000000000000000602082015250565b6000612030602683611712565b915061203b82611fd4565b604082019050919050565b6000602082019050818103600083015261205f81612023565b9050919050565b600081905092915050565b7f416363657373436f6e74726f6c3a206163636f756e7420000000000000000000600082015250565b60006120a7601783612066565b91506120b282612071565b601782019050919050565b60006120c882611707565b6120d28185612066565b93506120e2818560208601611723565b80840191505092915050565b7f206973206d697373696e6720726f6c6520000000000000000000000000000000600082015250565b6000612124601183612066565b915061212f826120ee565b601182019050919050565b60006121458261209a565b915061215182856120bd565b915061215c82612117565b915061216882846120bd565b91508190509392505050565b7f45524332303a206d696e7420746f20746865207a65726f206164647265737300600082015250565b60006121aa601f83611712565b91506121b582612174565b602082019050919050565b600060208201905081810360008301526121d98161219d565b9050919050565b60006121eb82611820565b91506121f683611820565b9250817fffffffffffffffffffffffffffffffffffffffffffffffffffffffffffffffff048311821515161561222f5761222e611c09565b5b828202905092915050565b7f4e487b7100000000000000000000000000000000000000000000000000000000600052604160045260246000fd5b7f4e487b7100000000000000000000000000000000000000000000000000000000600052603260045260246000fd5b60006122a382611820565b915060008214156122b7576122b6611c09565b5b600182039050919050565b7f537472696e67733a20686578206c656e67746820696e73756666696369656e74600082015250565b60006122f8602083611712565b9150612303826122c2565b602082019050919050565b60006020820190508181036000830152612327816122eb565b905091905056fea26469706673582212205b1ffb9682a368d050237c451fa3435918cd4c536a36f777a125ddaf85a4d09964736f6c634300080a0033",
  "immutableReferences": {},
  "source": "// SPDX-License-Identifier: GPL-3.0\r\npragma solidity ^0.8.0;\r\n\r\nimport \"@openzeppelin/contracts/access/Ownable.sol\";\r\nimport \"@openzeppelin/contracts/access/AccessControlEnumerable.sol\";\r\nimport \"./LuckyNumberToken.sol\";\r\n\r\ncontract GuessNumber is Ownable, AccessControlEnumerable {\r\n  /// @notice counter to keep track how many games exist\r\n  /// @dev used to store how many games are created\r\n  uint gameCounter;\r\n\r\n  /// @dev address of operator that create a games\r\n  address public guessNumberOperator;\r\n\r\n  /// @dev lucky number token\r\n  LuckyNumberToken private luckyNumberToken;\r\n  \r\n  /// @dev enum that defines state of the games\r\n  enum GuessNumberState {\r\n    GUESSING_NUMBER_CREATE_GAME,\r\n    GUESSING_FINISHED_SUCCESS,\r\n    GUESSING_FINISHED_FAILED\r\n  }\r\n\r\n  /// @dev struct that describe game\r\n  struct GuessNumberGame {\r\n    address guessNumberPlayer;\r\n    uint numberToBeGuessed;\r\n    uint guessNumber;\r\n    GuessNumberState gameState;\r\n  }\r\n\r\n  mapping(uint => GuessNumberGame) private guessNumberGames;\r\n  bool[] private games;\r\n\r\n  /// @notice modifier to check that owner can not guess the game\r\n  modifier isNotOwner() {\r\n    require(guessNumberOperator != msg.sender, \"Owner of the game can not guess the numbers\");\r\n    _;\r\n  }\r\n\r\n  /// @notice modifier to check if it is possible to play game\r\n  modifier isGameAvailable() {\r\n    uint numbOfGame = 0;\r\n    // Count number of available games\r\n    for (uint i = 1; i <= games.length; i++) {\r\n      if (games[i-1] == true) {\r\n        numbOfGame++;\r\n      }\r\n    }\r\n    // System must have more that a 5 games ready to be played\r\n    require(numbOfGame > 5, \"Game is not ready to be played\");\r\n    _;\r\n  }\r\n\r\n  /// @notice modifier to check if number to be guessed is in a range between 1 and 10\r\n  modifier checkTheNumber(uint _numberToBeGuessed) {\r\n    require(_numberToBeGuessed > 0 && _numberToBeGuessed < 11, \"Number must be between 1 and 10\");\r\n    _;\r\n  }\r\n\r\n  /// @notice emited when new game is created\r\n  /// @dev emited when new game is created\r\n  /// @param operator address of operator\r\n  event GuessingNumberGameAdd(address operator);\r\n\r\n  /// @notice emited when player succeed to guess the number\r\n  /// @dev emited when player succeed to guess the number\r\n  /// @param player address of player that missed the number\r\n  event GuessingNumberSuccess(address player);\r\n\r\n  /// @notice emited when player missed the number\r\n  /// @dev emited when player missed the number\r\n  /// @param player address of player that missed the number\r\n  event GuessingNumberFailed(address player);\r\n\r\n  constructor() {\r\n    guessNumberOperator = owner();\r\n    luckyNumberToken = new LuckyNumberToken();\r\n  }\r\n\r\n  function isTheOwner() public view returns (bool) {\r\n    if (msg.sender != guessNumberOperator) {\r\n      return false;\r\n    }\r\n\r\n    return true;\r\n  }\r\n\r\n  /// @notice Create new guessing number game and set initial state\r\n  /// @param _numberToBeGuessed number that user should guess\r\n  /// @dev create and add new game into list of games with submitted number\r\n  function createGuessingNumberGame(uint _numberToBeGuessed) public onlyOwner checkTheNumber(_numberToBeGuessed) {\r\n    // Set data of the game\r\n    guessNumberGames[gameCounter].gameState = GuessNumberState.GUESSING_NUMBER_CREATE_GAME;\r\n    guessNumberGames[gameCounter].numberToBeGuessed = _numberToBeGuessed;\r\n    \r\n    // Set game counter\r\n    gameCounter = gameCounter + 1;\r\n    // Add new game that is available to be played\r\n    games.push(true);\r\n\r\n    // Publish event that new game has been added\r\n    emit GuessingNumberGameAdd(guessNumberOperator);\r\n  }\r\n\r\n  /// @notice Create new guessing number game and set initial state\r\n  /// @param _numberGuessed number that user should guess\r\n  /// @dev create and add new game into list of games with submitted number\r\n  function guessTheNumber(uint _numberGuessed) public isGameAvailable() isNotOwner() returns (bool) {\r\n    // Find first available game\r\n    // If game doesn't exist transaction will be revertted\r\n    uint index = findNextGame();\r\n    \r\n    // played game\r\n    guessNumberGames[index].guessNumberPlayer = msg.sender;\r\n    guessNumberGames[index].guessNumber = _numberGuessed;\r\n    games[index] = false;\r\n\r\n    // Check if player successfully guessed the \r\n    if (guessNumberGames[index].guessNumber == guessNumberGames[index].numberToBeGuessed) {\r\n      guessNumberGames[index].gameState = GuessNumberState.GUESSING_FINISHED_SUCCESS;\r\n      luckyNumberToken.mint(msg.sender, 500);\r\n      emit GuessingNumberSuccess(msg.sender);\r\n      return true;\r\n    }\r\n      \r\n    // Game is lost, set player \r\n    guessNumberGames[index].gameState = GuessNumberState.GUESSING_FINISHED_FAILED;\r\n    emit GuessingNumberFailed(msg.sender);\r\n    return false;\r\n  }\r\n  \r\n  /// @notice Get number of winnings\r\n  /// @dev Get number of winnings base on sender address\r\n  function getNumberOfPlayerWinnings() public view returns (uint) {\r\n    uint numberOfWinnings = 0;\r\n    for (uint i = 0; i < gameCounter; i++) {\r\n      if (guessNumberGames[i].guessNumberPlayer == msg.sender && guessNumberGames[i].gameState == GuessNumberState.GUESSING_FINISHED_SUCCESS) {\r\n        numberOfWinnings++;\r\n      }\r\n    }\r\n\r\n    return numberOfWinnings;\r\n  }\r\n\r\n  /// @notice Get number of losses\r\n  /// @dev Get number of losses base on sender address\r\n  function getNumberOfPlayerLosses() public view returns (uint) {\r\n    uint numberOfLosses = 0;\r\n    for (uint i = 0; i < gameCounter; i++) {\r\n      if (guessNumberGames[i].guessNumberPlayer == msg.sender && guessNumberGames[i].gameState == GuessNumberState.GUESSING_FINISHED_FAILED) {\r\n        numberOfLosses++;\r\n      }\r\n    }\r\n\r\n    return numberOfLosses;\r\n  }\r\n\r\n  /// @notice Create \"Random number\" to get game from array\r\n  /// @dev create not really random number - For real random number use Oracle implement \"@chainlink/contracts/src/v0.8/VRFConsumerBase.sol\";\r\n  function notReallyRandom() private view returns (uint256) {\r\n    return uint256(keccak256(abi.encodePacked(block.difficulty, block.timestamp)));\r\n  }\r\n\r\n  /// @notice Get number of losses\r\n  /// @dev Get number of losses base on sender address\r\n  function findNextGame() private view returns (uint) {\r\n    // Find available game\r\n    uint numbOfGames = 0;\r\n    bool gameFound = false;\r\n  \r\n    // Cound number of available games\r\n    for (uint i = 0; i < games.length; i++) {\r\n      if (games[i] == true) {\r\n        numbOfGames++;\r\n      }\r\n    }\r\n\r\n    // DEMO Find random number between 0 and number of games\r\n    uint random = notReallyRandom() % numbOfGames + 1;\r\n\r\n    // Get demo random number\r\n    uint game = 0;\r\n    for (uint i = 0; i < games.length; i++) {\r\n      if (games[i] == true) {\r\n         game++;\r\n      }\r\n\r\n      if (game == random) {\r\n        gameFound = true;\r\n        return i;\r\n      }\r\n    }\r\n\r\n    // Check if game is not found - will be false if return doesn't return anything\r\n    require(gameFound == false, \"Game could not be found\");\r\n\r\n    // Function will never come here. Result must be returned\r\n    return 0;\r\n  }\r\n\r\n  /// @notice Get lucky number token balance\r\n  /// @dev Based on provided address get lucky token balance\r\n  function getLuckyNumberTokenBalance(address _address) public view returns (uint) {\r\n    return luckyNumberToken.balanceOf(_address);\r\n  }\r\n\r\n  /// @notice Get count of available games\r\n  /// @dev Get count of available games from the games\r\n  function getNumberOfAvailableGames() public view returns (uint) {\r\n    uint numbOfGames = 0;\r\n\r\n    // Cound number of available games\r\n    for (uint i = 0; i < games.length; i++) {\r\n      if (games[i] == true) {\r\n        numbOfGames++;\r\n      }\r\n    }\r\n\r\n    return numbOfGames;\r\n  }\r\n}",
  "sourcePath": "D:\\Consensys Academy\\blockchain-developer-bootcamp-final-project\\contracts\\GuessNumber.sol",
  "compiler": {
    "name": "solc",
    "version": "0.8.10+commit.fc410830.Emscripten.clang"
  },
  "schemaVersion": "3.4.3",
  "updatedAt": "2021-11-27T00:48:27.830Z",
  "networkType": "ethereum",
  "devdoc": {
    "events": {
      "GuessingNumberFailed(address)": {
        "details": "emited when player missed the number",
        "params": {
          "player": "address of player that missed the number"
        }
      },
      "GuessingNumberGameAdd(address)": {
        "details": "emited when new game is created",
        "params": {
          "operator": "address of operator"
        }
      },
      "GuessingNumberSuccess(address)": {
        "details": "emited when player succeed to guess the number",
        "params": {
          "player": "address of player that missed the number"
        }
      }
    },
    "kind": "dev",
    "methods": {
      "createGuessingNumberGame(uint256)": {
        "details": "create and add new game into list of games with submitted number",
        "params": {
          "_numberToBeGuessed": "number that user should guess"
        }
      },
      "getLuckyNumberTokenBalance(address)": {
        "details": "Based on provided address get lucky token balance"
      },
      "getNumberOfAvailableGames()": {
        "details": "Get count of available games from the games"
      },
      "getNumberOfPlayerLosses()": {
        "details": "Get number of losses base on sender address"
      },
      "getNumberOfPlayerWinnings()": {
        "details": "Get number of winnings base on sender address"
      },
      "getRoleAdmin(bytes32)": {
        "details": "Returns the admin role that controls `role`. See {grantRole} and {revokeRole}. To change a role's admin, use {_setRoleAdmin}."
      },
      "getRoleMember(bytes32,uint256)": {
        "details": "Returns one of the accounts that have `role`. `index` must be a value between 0 and {getRoleMemberCount}, non-inclusive. Role bearers are not sorted in any particular way, and their ordering may change at any point. WARNING: When using {getRoleMember} and {getRoleMemberCount}, make sure you perform all queries on the same block. See the following https://forum.openzeppelin.com/t/iterating-over-elements-on-enumerableset-in-openzeppelin-contracts/2296[forum post] for more information."
      },
      "getRoleMemberCount(bytes32)": {
        "details": "Returns the number of accounts that have `role`. Can be used together with {getRoleMember} to enumerate all bearers of a role."
      },
      "grantRole(bytes32,address)": {
        "details": "Overload {grantRole} to track enumerable memberships"
      },
      "guessTheNumber(uint256)": {
        "details": "create and add new game into list of games with submitted number",
        "params": {
          "_numberGuessed": "number that user should guess"
        }
      },
      "hasRole(bytes32,address)": {
        "details": "Returns `true` if `account` has been granted `role`."
      },
      "owner()": {
        "details": "Returns the address of the current owner."
      },
      "renounceOwnership()": {
        "details": "Leaves the contract without owner. It will not be possible to call `onlyOwner` functions anymore. Can only be called by the current owner. NOTE: Renouncing ownership will leave the contract without an owner, thereby removing any functionality that is only available to the owner."
      },
      "renounceRole(bytes32,address)": {
        "details": "Overload {renounceRole} to track enumerable memberships"
      },
      "revokeRole(bytes32,address)": {
        "details": "Overload {revokeRole} to track enumerable memberships"
      },
      "supportsInterface(bytes4)": {
        "details": "See {IERC165-supportsInterface}."
      },
      "transferOwnership(address)": {
        "details": "Transfers ownership of the contract to a new account (`newOwner`). Can only be called by the current owner."
      }
    },
    "stateVariables": {
      "gameCounter": {
        "details": "used to store how many games are created"
      },
      "guessNumberOperator": {
        "details": "address of operator that create a games"
      },
      "luckyNumberToken": {
        "details": "lucky number token"
      }
    },
    "version": 1
  },
  "userdoc": {
    "events": {
      "GuessingNumberFailed(address)": {
        "notice": "emited when player missed the number"
      },
      "GuessingNumberGameAdd(address)": {
        "notice": "emited when new game is created"
      },
      "GuessingNumberSuccess(address)": {
        "notice": "emited when player succeed to guess the number"
      }
    },
    "kind": "user",
    "methods": {
      "createGuessingNumberGame(uint256)": {
        "notice": "Create new guessing number game and set initial state"
      },
      "getLuckyNumberTokenBalance(address)": {
        "notice": "Get lucky number token balance"
      },
      "getNumberOfAvailableGames()": {
        "notice": "Get count of available games"
      },
      "getNumberOfPlayerLosses()": {
        "notice": "Get number of losses"
      },
      "getNumberOfPlayerWinnings()": {
        "notice": "Get number of winnings"
      },
      "guessTheNumber(uint256)": {
        "notice": "Create new guessing number game and set initial state"
      }
    },
    "version": 1
  }
}