{
  "contractName": "GuessNumber",
  "abi": [
    {
      "inputs": [],
      "stateMutability": "nonpayable",
      "type": "constructor"
    },
    {
      "anonymous": false,
      "inputs": [
        {
          "indexed": false,
          "internalType": "address",
          "name": "player",
          "type": "address"
        }
      ],
      "name": "GuessingNumberFailed",
      "type": "event"
    },
    {
      "anonymous": false,
      "inputs": [
        {
          "indexed": false,
          "internalType": "address",
          "name": "operator",
          "type": "address"
        }
      ],
      "name": "GuessingNumberGameAdd",
      "type": "event"
    },
    {
      "anonymous": false,
      "inputs": [
        {
          "indexed": false,
          "internalType": "address",
          "name": "player",
          "type": "address"
        }
      ],
      "name": "GuessingNumberSuccess",
      "type": "event"
    },
    {
      "anonymous": false,
      "inputs": [
        {
          "indexed": true,
          "internalType": "address",
          "name": "previousOwner",
          "type": "address"
        },
        {
          "indexed": true,
          "internalType": "address",
          "name": "newOwner",
          "type": "address"
        }
      ],
      "name": "OwnershipTransferred",
      "type": "event"
    },
    {
      "inputs": [],
      "name": "guessNumberOperator",
      "outputs": [
        {
          "internalType": "address",
          "name": "",
          "type": "address"
        }
      ],
      "stateMutability": "view",
      "type": "function"
    },
    {
      "inputs": [],
      "name": "owner",
      "outputs": [
        {
          "internalType": "address",
          "name": "",
          "type": "address"
        }
      ],
      "stateMutability": "view",
      "type": "function"
    },
    {
      "inputs": [],
      "name": "renounceOwnership",
      "outputs": [],
      "stateMutability": "nonpayable",
      "type": "function"
    },
    {
      "inputs": [
        {
          "internalType": "address",
          "name": "newOwner",
          "type": "address"
        }
      ],
      "name": "transferOwnership",
      "outputs": [],
      "stateMutability": "nonpayable",
      "type": "function"
    },
    {
      "inputs": [
        {
          "internalType": "uint256",
          "name": "_numberToBeGuessed",
          "type": "uint256"
        }
      ],
      "name": "createGuessingNumberGame",
      "outputs": [],
      "stateMutability": "nonpayable",
      "type": "function"
    },
    {
      "inputs": [
        {
          "internalType": "uint256",
          "name": "_numberGuessed",
          "type": "uint256"
        }
      ],
      "name": "guessTheNumber",
      "outputs": [
        {
          "internalType": "bool",
          "name": "",
          "type": "bool"
        }
      ],
      "stateMutability": "nonpayable",
      "type": "function"
    },
    {
      "inputs": [],
      "name": "getNumberOfPlayerWinnings",
      "outputs": [
        {
          "internalType": "uint256",
          "name": "",
          "type": "uint256"
        }
      ],
      "stateMutability": "view",
      "type": "function"
    },
    {
      "inputs": [],
      "name": "getNumberOfPlayerLosses",
      "outputs": [
        {
          "internalType": "uint256",
          "name": "",
          "type": "uint256"
        }
      ],
      "stateMutability": "view",
      "type": "function"
    }
  ],
  "bytecode": "0x608060405234801561001057600080fd5b5061002d61002261008060201b60201c565b61008860201b60201c565b61003b61014c60201b60201c565b600260006101000a81548173ffffffffffffffffffffffffffffffffffffffff021916908373ffffffffffffffffffffffffffffffffffffffff160217905550610175565b600033905090565b60008060009054906101000a900473ffffffffffffffffffffffffffffffffffffffff169050816000806101000a81548173ffffffffffffffffffffffffffffffffffffffff021916908373ffffffffffffffffffffffffffffffffffffffff1602179055508173ffffffffffffffffffffffffffffffffffffffff168173ffffffffffffffffffffffffffffffffffffffff167f8be0079c531659141344cd1fd0a4f28419497f9722a3daafe3b4186f6b6457e060405160405180910390a35050565b60008060009054906101000a900473ffffffffffffffffffffffffffffffffffffffff16905090565b6112ce806101846000396000f3fe608060405234801561001057600080fd5b50600436106100885760003560e01c8063a4e7ca951161005b578063a4e7ca95146100f1578063bd939ea21461010d578063d4f639d71461012b578063f2fde38b1461015b57610088565b8063258034781461008d5780633d6c62d3146100ab578063715018a6146100c95780638da5cb5b146100d3575b600080fd5b610095610177565b6040516100a29190610cd6565b60405180910390f35b6100b361019d565b6040516100c09190610d0a565b60405180910390f35b6100d1610297565b005b6100db61031f565b6040516100e89190610cd6565b60405180910390f35b61010b60048036038101906101069190610d56565b610348565b005b6101156104d7565b6040516101229190610d0a565b60405180910390f35b61014560048036038101906101409190610d56565b6105d2565b6040516101529190610d9e565b60405180910390f35b61017560048036038101906101709190610de5565b610920565b005b600260009054906101000a900473ffffffffffffffffffffffffffffffffffffffff1681565b6000806000905060005b60015481101561028f573373ffffffffffffffffffffffffffffffffffffffff166003600083815260200190815260200160002060000160009054906101000a900473ffffffffffffffffffffffffffffffffffffffff1673ffffffffffffffffffffffffffffffffffffffff1614801561026857506002808111156102305761022f610e12565b5b6003600083815260200190815260200160002060030160009054906101000a900460ff16600281111561026657610265610e12565b5b145b1561027c57818061027890610e70565b9250505b808061028790610e70565b9150506101a7565b508091505090565b61029f610a18565b73ffffffffffffffffffffffffffffffffffffffff166102bd61031f565b73ffffffffffffffffffffffffffffffffffffffff1614610313576040517f08c379a000000000000000000000000000000000000000000000000000000000815260040161030a90610f16565b60405180910390fd5b61031d6000610a20565b565b60008060009054906101000a900473ffffffffffffffffffffffffffffffffffffffff16905090565b610350610a18565b73ffffffffffffffffffffffffffffffffffffffff1661036e61031f565b73ffffffffffffffffffffffffffffffffffffffff16146103c4576040517f08c379a00000000000000000000000000000000000000000000000000000000081526004016103bb90610f16565b60405180910390fd5b600060036000600154815260200190815260200160002060030160006101000a81548160ff02191690836002811115610400576103ff610e12565b5b02179055508060036000600154815260200190815260200160002060010181905550600180546104309190610f36565b6001819055506004600190806001815401808255809150506001900390600052602060002090602091828204019190069091909190916101000a81548160ff0219169083151502179055507f37797c7d77f5f5f57c132367ded10323b51e535719967c4b8f1ab72310ad97c2600260009054906101000a900473ffffffffffffffffffffffffffffffffffffffff166040516104cc9190610cd6565b60405180910390a150565b6000806000905060005b6001548110156105ca573373ffffffffffffffffffffffffffffffffffffffff166003600083815260200190815260200160002060000160009054906101000a900473ffffffffffffffffffffffffffffffffffffffff1673ffffffffffffffffffffffffffffffffffffffff161480156105a357506001600281111561056b5761056a610e12565b5b6003600083815260200190815260200160002060030160009054906101000a900460ff1660028111156105a1576105a0610e12565b5b145b156105b75781806105b390610e70565b9250505b80806105c290610e70565b9150506104e1565b508091505090565b600080600090506000600190505b600480549050811161065a576001151560046001836105ff9190610f8c565b815481106106105761060f610fc0565b5b90600052602060002090602091828204019190069054906101000a900460ff161515141561064757818061064390610e70565b9250505b808061065290610e70565b9150506105e0565b506005811161069e576040517f08c379a00000000000000000000000000000000000000000000000000000000081526004016106959061103b565b60405180910390fd5b3373ffffffffffffffffffffffffffffffffffffffff16600260009054906101000a900473ffffffffffffffffffffffffffffffffffffffff1673ffffffffffffffffffffffffffffffffffffffff16141561072f576040517f08c379a0000000000000000000000000000000000000000000000000000000008152600401610726906110cd565b60405180910390fd5b6000610739610ae4565b9050336003600083815260200190815260200160002060000160006101000a81548173ffffffffffffffffffffffffffffffffffffffff021916908373ffffffffffffffffffffffffffffffffffffffff1602179055508360036000838152602001908152602001600020600201819055506000600482815481106107c1576107c0610fc0565b5b90600052602060002090602091828204019190066101000a81548160ff02191690831515021790555060036000828152602001908152602001600020600101546003600083815260200190815260200160002060020154141561089e5760016003600083815260200190815260200160002060030160006101000a81548160ff0219169083600281111561085857610857610e12565b5b02179055507f9e9baf7a7321b47d91916729c25dcb16df81fe5f4debe424bdbb4bd9b1af97ee3360405161088c9190610cd6565b60405180910390a1600192505061091a565b60026003600083815260200190815260200160002060030160006101000a81548160ff021916908360028111156108d8576108d7610e12565b5b02179055507faa4966ff60f4429a6fbddef4c7a97ef9538281a119fe572c0a6f0f5f1a896b863360405161090c9190610cd6565b60405180910390a160009250505b50919050565b610928610a18565b73ffffffffffffffffffffffffffffffffffffffff1661094661031f565b73ffffffffffffffffffffffffffffffffffffffff161461099c576040517f08c379a000000000000000000000000000000000000000000000000000000000815260040161099390610f16565b60405180910390fd5b600073ffffffffffffffffffffffffffffffffffffffff168173ffffffffffffffffffffffffffffffffffffffff161415610a0c576040517f08c379a0000000000000000000000000000000000000000000000000000000008152600401610a039061115f565b60405180910390fd5b610a1581610a20565b50565b600033905090565b60008060009054906101000a900473ffffffffffffffffffffffffffffffffffffffff169050816000806101000a81548173ffffffffffffffffffffffffffffffffffffffff021916908373ffffffffffffffffffffffffffffffffffffffff1602179055508173ffffffffffffffffffffffffffffffffffffffff168173ffffffffffffffffffffffffffffffffffffffff167f8be0079c531659141344cd1fd0a4f28419497f9722a3daafe3b4186f6b6457e060405160405180910390a35050565b600080600090506000805b600480549050811015610b5e576001151560048281548110610b1457610b13610fc0565b5b90600052602060002090602091828204019190069054906101000a900460ff1615151415610b4b578280610b4790610e70565b9350505b8080610b5690610e70565b915050610aef565b506000600183610b6c610c62565b610b7691906111ae565b610b809190610f36565b90506000805b600480549050811015610c0e576001151560048281548110610bab57610baa610fc0565b5b90600052602060002090602091828204019190069054906101000a900460ff1615151415610be2578180610bde90610e70565b9250505b82821415610bfb57600193508095505050505050610c5f565b8080610c0690610e70565b915050610b86565b506000151583151514610c56576040517f08c379a0000000000000000000000000000000000000000000000000000000008152600401610c4d9061122b565b60405180910390fd5b60009450505050505b90565b60004442604051602001610c7792919061126c565b6040516020818303038152906040528051906020012060001c905090565b600073ffffffffffffffffffffffffffffffffffffffff82169050919050565b6000610cc082610c95565b9050919050565b610cd081610cb5565b82525050565b6000602082019050610ceb6000830184610cc7565b92915050565b6000819050919050565b610d0481610cf1565b82525050565b6000602082019050610d1f6000830184610cfb565b92915050565b600080fd5b610d3381610cf1565b8114610d3e57600080fd5b50565b600081359050610d5081610d2a565b92915050565b600060208284031215610d6c57610d6b610d25565b5b6000610d7a84828501610d41565b91505092915050565b60008115159050919050565b610d9881610d83565b82525050565b6000602082019050610db36000830184610d8f565b92915050565b610dc281610cb5565b8114610dcd57600080fd5b50565b600081359050610ddf81610db9565b92915050565b600060208284031215610dfb57610dfa610d25565b5b6000610e0984828501610dd0565b91505092915050565b7f4e487b7100000000000000000000000000000000000000000000000000000000600052602160045260246000fd5b7f4e487b7100000000000000000000000000000000000000000000000000000000600052601160045260246000fd5b6000610e7b82610cf1565b91507fffffffffffffffffffffffffffffffffffffffffffffffffffffffffffffffff821415610eae57610ead610e41565b5b600182019050919050565b600082825260208201905092915050565b7f4f776e61626c653a2063616c6c6572206973206e6f7420746865206f776e6572600082015250565b6000610f00602083610eb9565b9150610f0b82610eca565b602082019050919050565b60006020820190508181036000830152610f2f81610ef3565b9050919050565b6000610f4182610cf1565b9150610f4c83610cf1565b9250827fffffffffffffffffffffffffffffffffffffffffffffffffffffffffffffffff03821115610f8157610f80610e41565b5b828201905092915050565b6000610f9782610cf1565b9150610fa283610cf1565b925082821015610fb557610fb4610e41565b5b828203905092915050565b7f4e487b7100000000000000000000000000000000000000000000000000000000600052603260045260246000fd5b7f47616d65206973206e6f7420726561647920746f20626520706c617965640000600082015250565b6000611025601e83610eb9565b915061103082610fef565b602082019050919050565b6000602082019050818103600083015261105481611018565b9050919050565b7f4f776e6572206f66207468652067616d652063616e206e6f742067756573732060008201527f746865206e756d62657273000000000000000000000000000000000000000000602082015250565b60006110b7602b83610eb9565b91506110c28261105b565b604082019050919050565b600060208201905081810360008301526110e6816110aa565b9050919050565b7f4f776e61626c653a206e6577206f776e657220697320746865207a65726f206160008201527f6464726573730000000000000000000000000000000000000000000000000000602082015250565b6000611149602683610eb9565b9150611154826110ed565b604082019050919050565b600060208201905081810360008301526111788161113c565b9050919050565b7f4e487b7100000000000000000000000000000000000000000000000000000000600052601260045260246000fd5b60006111b982610cf1565b91506111c483610cf1565b9250826111d4576111d361117f565b5b828206905092915050565b7f47616d6520636f756c64206e6f7420626520666f756e64000000000000000000600082015250565b6000611215601783610eb9565b9150611220826111df565b602082019050919050565b6000602082019050818103600083015261124481611208565b9050919050565b6000819050919050565b61126661126182610cf1565b61124b565b82525050565b60006112788285611255565b6020820191506112888284611255565b602082019150819050939250505056fea2646970667358221220436462255616e1ee0fdb0971a973161d997e3fb4566be8d3d585266f14e55a3064736f6c634300080a0033",
  "immutableReferences": {},
  "source": "// SPDX-License-Identifier: GPL-3.0\r\npragma solidity ^0.8.0;\r\n\r\nimport \"@openzeppelin/contracts/access/Ownable.sol\";\r\n\r\ncontract GuessNumber is Ownable {\r\n  /// @notice counter to keep track how many games exist\r\n  /// @dev used to store how many games are created\r\n  uint gameCounter;\r\n\r\n  /// @dev address of operator that create a games\r\n  address public guessNumberOperator;\r\n  \r\n  /// @dev enum that defines state of the games\r\n  enum GuessNumberState {\r\n    GUESSING_NUMBER_CREATE_GAME,\r\n    GUESSING_FINISHED_SUCCESS,\r\n    GUESSING_FINISHED_FAILED\r\n  }\r\n\r\n  /// @dev struct that describe game\r\n  struct GuessNumberGame {\r\n    address guessNumberPlayer;\r\n    uint numberToBeGuessed;\r\n    uint guessNumber;\r\n    GuessNumberState gameState;\r\n  }\r\n\r\n  mapping(uint => GuessNumberGame) private guessNumberGames;\r\n  bool[] private games;\r\n\r\n  /// @notice modifier to check that owner can not guess the game\r\n  modifier isNotOwner() {\r\n    require(guessNumberOperator != msg.sender, \"Owner of the game can not guess the numbers\");\r\n    _;\r\n  }\r\n\r\n  /// @notice modifier to check if it is possible to play game\r\n  modifier isGameAvailable() {\r\n    uint numbOfGame = 0;\r\n    // Count number of available games\r\n    for (uint i = 1; i <= games.length; i++) {\r\n      if (games[i-1] == true) {\r\n        numbOfGame++;\r\n      }\r\n    }\r\n    // System must have more that a 5 games ready to be played\r\n    require(numbOfGame > 5, \"Game is not ready to be played\");\r\n    _;\r\n  }\r\n\r\n  /// @notice emited when new game is created\r\n  /// @dev emited when new game is created\r\n  /// @param operator address of operator\r\n  event GuessingNumberGameAdd(address operator);\r\n\r\n  /// @notice emited when player succeed to guess the number\r\n  /// @dev emited when player succeed to guess the number\r\n  /// @param player address of player that missed the number\r\n  event GuessingNumberSuccess(address player);\r\n\r\n  /// @notice emited when player missed the number\r\n  /// @dev emited when player missed the number\r\n  /// @param player address of player that missed the number\r\n  event GuessingNumberFailed(address player);\r\n\r\n  constructor() {\r\n    guessNumberOperator = owner();\r\n  }\r\n\r\n  /// @notice Create new guessing number game and set initial state\r\n  /// @param _numberToBeGuessed number that user should guess\r\n  /// @dev create and add new game into list of games with submitted number\r\n  function createGuessingNumberGame(uint _numberToBeGuessed) public onlyOwner {\r\n    // Set data of the game\r\n    guessNumberGames[gameCounter].gameState = GuessNumberState.GUESSING_NUMBER_CREATE_GAME;\r\n    guessNumberGames[gameCounter].numberToBeGuessed = _numberToBeGuessed;\r\n    \r\n    // Set game counter\r\n    gameCounter = gameCounter + 1;\r\n    // Add new game that is available to be played\r\n    games.push(true);\r\n\r\n    // Publish event that new game has been added\r\n    emit GuessingNumberGameAdd(guessNumberOperator);\r\n  }\r\n\r\n  /// @notice Create new guessing number game and set initial state\r\n  /// @param _numberGuessed number that user should guess\r\n  /// @dev create and add new game into list of games with submitted number\r\n  function guessTheNumber(uint _numberGuessed) public isGameAvailable() isNotOwner() returns (bool) {\r\n    // Find first available game\r\n    // If game doesn't exist transaction will be revertted\r\n    uint index = findNextGame();\r\n    \r\n    // played game\r\n    guessNumberGames[index].guessNumberPlayer = msg.sender;\r\n    guessNumberGames[index].guessNumber = _numberGuessed;\r\n    games[index] = false;\r\n\r\n    // Check if player successfully guessed the \r\n    if (guessNumberGames[index].guessNumber == guessNumberGames[index].numberToBeGuessed) {\r\n      guessNumberGames[index].gameState = GuessNumberState.GUESSING_FINISHED_SUCCESS;\r\n      emit GuessingNumberSuccess(msg.sender);\r\n      return true;\r\n    }\r\n      \r\n    // Game is lost, set player \r\n    guessNumberGames[index].gameState = GuessNumberState.GUESSING_FINISHED_FAILED;\r\n    emit GuessingNumberFailed(msg.sender);\r\n    return false;\r\n  }\r\n  \r\n  /// @notice Get number of winnings\r\n  /// @dev Get number of winnings base on sender address\r\n  function getNumberOfPlayerWinnings() public view returns (uint) {\r\n    uint numberOfWinnings = 0;\r\n    for (uint i = 0; i < gameCounter; i++) {\r\n      if (guessNumberGames[i].guessNumberPlayer == msg.sender && guessNumberGames[i].gameState == GuessNumberState.GUESSING_FINISHED_SUCCESS) {\r\n        numberOfWinnings++;\r\n      }\r\n    }\r\n\r\n    return numberOfWinnings;\r\n  }\r\n\r\n  /// @notice Get number of losses\r\n  /// @dev Get number of losses base on sender address\r\n  function getNumberOfPlayerLosses() public view returns (uint) {\r\n    uint numberOfLosses = 0;\r\n    for (uint i = 0; i < gameCounter; i++) {\r\n      if (guessNumberGames[i].guessNumberPlayer == msg.sender && guessNumberGames[i].gameState == GuessNumberState.GUESSING_FINISHED_FAILED) {\r\n        numberOfLosses++;\r\n      }\r\n    }\r\n\r\n    return numberOfLosses;\r\n  }\r\n\r\n  /// @notice Create \"Random number\" to get game from array\r\n  /// @dev create not really random number - For real random number use Oracle implement \"@chainlink/contracts/src/v0.8/VRFConsumerBase.sol\";\r\n  function notReallyRandom() private view returns (uint256) {\r\n    return uint256(keccak256(abi.encodePacked(block.difficulty, block.timestamp)));\r\n  }\r\n\r\n  /// @notice Get number of losses\r\n  /// @dev Get number of losses base on sender address\r\n  function findNextGame() private view returns (uint) {\r\n    // Find available game\r\n    uint numbOfGames = 0;\r\n    bool gameFound = false;\r\n  \r\n    // Cound number of available games\r\n    for (uint i = 0; i < games.length; i++) {\r\n      if (games[i] == true) {\r\n        numbOfGames++;\r\n      }\r\n    }\r\n\r\n    // DEMO Find random number between 0 and number of games\r\n    uint random = notReallyRandom() % numbOfGames + 1;\r\n\r\n    // Get demo random number\r\n    uint game = 0;\r\n    for (uint i = 0; i < games.length; i++) {\r\n      if (games[i] == true) {\r\n         game++;\r\n      }\r\n\r\n      if (game == random) {\r\n        gameFound = true;\r\n        return i;\r\n      }\r\n    }\r\n\r\n    // Check if game is not found - will be false if return doesn't return anything\r\n    require(gameFound == false, \"Game could not be found\");\r\n\r\n    // Function will never come here. Result must be returned\r\n    return 0;\r\n  }\r\n\r\n}",
  "sourcePath": "D:\\Consensys Academy\\blockchain-developer-bootcamp-final-project\\contracts\\GuessNumber.sol",
  "compiler": {
    "name": "solc",
    "version": "0.8.10+commit.fc410830.Emscripten.clang"
  },
  "schemaVersion": "3.4.3",
  "updatedAt": "2021-11-26T15:04:45.677Z",
  "devdoc": {
    "events": {
      "GuessingNumberFailed(address)": {
        "details": "emited when player missed the number",
        "params": {
          "player": "address of player that missed the number"
        }
      },
      "GuessingNumberGameAdd(address)": {
        "details": "emited when new game is created",
        "params": {
          "operator": "address of operator"
        }
      },
      "GuessingNumberSuccess(address)": {
        "details": "emited when player succeed to guess the number",
        "params": {
          "player": "address of player that missed the number"
        }
      }
    },
    "kind": "dev",
    "methods": {
      "createGuessingNumberGame(uint256)": {
        "details": "create and add new game into list of games with submitted number",
        "params": {
          "_numberToBeGuessed": "number that user should guess"
        }
      },
      "getNumberOfPlayerLosses()": {
        "details": "Get number of losses base on sender address"
      },
      "getNumberOfPlayerWinnings()": {
        "details": "Get number of winnings base on sender address"
      },
      "guessTheNumber(uint256)": {
        "details": "create and add new game into list of games with submitted number",
        "params": {
          "_numberGuessed": "number that user should guess"
        }
      },
      "owner()": {
        "details": "Returns the address of the current owner."
      },
      "renounceOwnership()": {
        "details": "Leaves the contract without owner. It will not be possible to call `onlyOwner` functions anymore. Can only be called by the current owner. NOTE: Renouncing ownership will leave the contract without an owner, thereby removing any functionality that is only available to the owner."
      },
      "transferOwnership(address)": {
        "details": "Transfers ownership of the contract to a new account (`newOwner`). Can only be called by the current owner."
      }
    },
    "stateVariables": {
      "gameCounter": {
        "details": "used to store how many games are created"
      },
      "guessNumberOperator": {
        "details": "address of operator that create a games"
      }
    },
    "version": 1
  },
  "userdoc": {
    "events": {
      "GuessingNumberFailed(address)": {
        "notice": "emited when player missed the number"
      },
      "GuessingNumberGameAdd(address)": {
        "notice": "emited when new game is created"
      },
      "GuessingNumberSuccess(address)": {
        "notice": "emited when player succeed to guess the number"
      }
    },
    "kind": "user",
    "methods": {
      "createGuessingNumberGame(uint256)": {
        "notice": "Create new guessing number game and set initial state"
      },
      "getNumberOfPlayerLosses()": {
        "notice": "Get number of losses"
      },
      "getNumberOfPlayerWinnings()": {
        "notice": "Get number of winnings"
      },
      "guessTheNumber(uint256)": {
        "notice": "Create new guessing number game and set initial state"
      }
    },
    "version": 1
  }
}